{
    "_format": "hh-sol-artifact-1",
    "contractName": "IceFire",
    "sourceName": "contracts/IceFire.sol",
    "abi": [
        {
            "inputs": [
                {
                    "internalType": "string[]",
                    "name": "characterNames",
                    "type": "string[]"
                },
                {
                    "internalType": "string[]",
                    "name": "characterImageURIs",
                    "type": "string[]"
                },
                {
                    "internalType": "uint256[]",
                    "name": "characterHealthPoints",
                    "type": "uint256[]"
                },
                {
                    "internalType": "uint256[]",
                    "name": "characterAttackDmg",
                    "type": "uint256[]"
                },
                {
                    "internalType": "string[]",
                    "name": "house",
                    "type": "string[]"
                },
                {
                    "internalType": "uint8[]",
                    "name": "age",
                    "type": "uint8[]"
                }
            ],
            "stateMutability": "payable",
            "type": "constructor"
        },
        {
            "anonymous": false,
            "inputs": [
                {
                    "indexed": true,
                    "internalType": "address",
                    "name": "owner",
                    "type": "address"
                },
                {
                    "indexed": true,
                    "internalType": "address",
                    "name": "approved",
                    "type": "address"
                },
                {
                    "indexed": true,
                    "internalType": "uint256",
                    "name": "tokenId",
                    "type": "uint256"
                }
            ],
            "name": "Approval",
            "type": "event"
        },
        {
            "anonymous": false,
            "inputs": [
                {
                    "indexed": true,
                    "internalType": "address",
                    "name": "owner",
                    "type": "address"
                },
                {
                    "indexed": true,
                    "internalType": "address",
                    "name": "operator",
                    "type": "address"
                },
                {
                    "indexed": false,
                    "internalType": "bool",
                    "name": "approved",
                    "type": "bool"
                }
            ],
            "name": "ApprovalForAll",
            "type": "event"
        },
        {
            "anonymous": false,
            "inputs": [
                {
                    "indexed": false,
                    "internalType": "address",
                    "name": "sender",
                    "type": "address"
                },
                {
                    "indexed": false,
                    "internalType": "uint256",
                    "name": "attackerHealthPoints",
                    "type": "uint256"
                },
                {
                    "indexed": false,
                    "internalType": "uint256",
                    "name": "defenderHealthPoints",
                    "type": "uint256"
                }
            ],
            "name": "AttackComplete",
            "type": "event"
        },
        {
            "anonymous": false,
            "inputs": [
                {
                    "indexed": false,
                    "internalType": "address",
                    "name": "sender",
                    "type": "address"
                },
                {
                    "indexed": false,
                    "internalType": "uint256",
                    "name": "tokenId",
                    "type": "uint256"
                },
                {
                    "indexed": false,
                    "internalType": "uint256",
                    "name": "characterIndex",
                    "type": "uint256"
                }
            ],
            "name": "CharacterNFTMinted",
            "type": "event"
        },
        {
            "anonymous": false,
            "inputs": [
                {
                    "indexed": true,
                    "internalType": "address",
                    "name": "from",
                    "type": "address"
                },
                {
                    "indexed": true,
                    "internalType": "address",
                    "name": "to",
                    "type": "address"
                },
                {
                    "indexed": true,
                    "internalType": "uint256",
                    "name": "tokenId",
                    "type": "uint256"
                }
            ],
            "name": "Transfer",
            "type": "event"
        },
        {
            "inputs": [
                {
                    "internalType": "address",
                    "name": "to",
                    "type": "address"
                },
                {
                    "internalType": "uint256",
                    "name": "tokenId",
                    "type": "uint256"
                }
            ],
            "name": "approve",
            "outputs": [],
            "stateMutability": "nonpayable",
            "type": "function"
        },
        {
            "inputs": [
                {
                    "internalType": "uint256",
                    "name": "attackerTokenId",
                    "type": "uint256"
                },
                {
                    "internalType": "uint256",
                    "name": "defenderTokenId",
                    "type": "uint256"
                }
            ],
            "name": "attackPlayer",
            "outputs": [],
            "stateMutability": "nonpayable",
            "type": "function"
        },
        {
            "inputs": [
                {
                    "internalType": "address",
                    "name": "owner",
                    "type": "address"
                }
            ],
            "name": "balanceOf",
            "outputs": [
                {
                    "internalType": "uint256",
                    "name": "",
                    "type": "uint256"
                }
            ],
            "stateMutability": "view",
            "type": "function"
        },
        {
            "inputs": [
                {
                    "internalType": "uint256",
                    "name": "",
                    "type": "uint256"
                }
            ],
            "name": "defaultCharacters",
            "outputs": [
                {
                    "internalType": "uint256",
                    "name": "characterIndex",
                    "type": "uint256"
                },
                {
                    "internalType": "string",
                    "name": "name",
                    "type": "string"
                },
                {
                    "internalType": "string",
                    "name": "imageURI",
                    "type": "string"
                },
                {
                    "internalType": "uint256",
                    "name": "healthPoints",
                    "type": "uint256"
                },
                {
                    "internalType": "uint256",
                    "name": "maxHealthPoints",
                    "type": "uint256"
                },
                {
                    "internalType": "uint256",
                    "name": "attackDamage",
                    "type": "uint256"
                },
                {
                    "internalType": "string",
                    "name": "house",
                    "type": "string"
                },
                {
                    "internalType": "uint8",
                    "name": "age",
                    "type": "uint8"
                }
            ],
            "stateMutability": "view",
            "type": "function"
        },
        {
            "inputs": [],
            "name": "getAllDefaultCharacters",
            "outputs": [
                {
                    "components": [
                        {
                            "internalType": "uint256",
                            "name": "characterIndex",
                            "type": "uint256"
                        },
                        {
                            "internalType": "string",
                            "name": "name",
                            "type": "string"
                        },
                        {
                            "internalType": "string",
                            "name": "imageURI",
                            "type": "string"
                        },
                        {
                            "internalType": "uint256",
                            "name": "healthPoints",
                            "type": "uint256"
                        },
                        {
                            "internalType": "uint256",
                            "name": "maxHealthPoints",
                            "type": "uint256"
                        },
                        {
                            "internalType": "uint256",
                            "name": "attackDamage",
                            "type": "uint256"
                        },
                        {
                            "internalType": "string",
                            "name": "house",
                            "type": "string"
                        },
                        {
                            "internalType": "uint8",
                            "name": "age",
                            "type": "uint8"
                        }
                    ],
                    "internalType": "struct FighterAttributes[]",
                    "name": "",
                    "type": "tuple[]"
                }
            ],
            "stateMutability": "view",
            "type": "function"
        },
        {
            "inputs": [
                {
                    "internalType": "uint256",
                    "name": "tokenId",
                    "type": "uint256"
                }
            ],
            "name": "getApproved",
            "outputs": [
                {
                    "internalType": "address",
                    "name": "",
                    "type": "address"
                }
            ],
            "stateMutability": "view",
            "type": "function"
        },
        {
            "inputs": [],
            "name": "getPlayerNFTs",
            "outputs": [
                {
                    "internalType": "uint256[]",
                    "name": "",
                    "type": "uint256[]"
                }
            ],
            "stateMutability": "view",
            "type": "function"
        },
        {
            "inputs": [
                {
                    "internalType": "uint256",
                    "name": "_tokenId",
                    "type": "uint256"
                }
            ],
            "name": "getUserNFTAttributes",
            "outputs": [
                {
                    "components": [
                        {
                            "internalType": "uint256",
                            "name": "tokenId",
                            "type": "uint256"
                        },
                        {
                            "internalType": "uint256",
                            "name": "createdAt",
                            "type": "uint256"
                        },
                        {
                            "components": [
                                {
                                    "internalType": "uint256",
                                    "name": "characterIndex",
                                    "type": "uint256"
                                },
                                {
                                    "internalType": "string",
                                    "name": "name",
                                    "type": "string"
                                },
                                {
                                    "internalType": "string",
                                    "name": "imageURI",
                                    "type": "string"
                                },
                                {
                                    "internalType": "uint256",
                                    "name": "healthPoints",
                                    "type": "uint256"
                                },
                                {
                                    "internalType": "uint256",
                                    "name": "maxHealthPoints",
                                    "type": "uint256"
                                },
                                {
                                    "internalType": "uint256",
                                    "name": "attackDamage",
                                    "type": "uint256"
                                },
                                {
                                    "internalType": "string",
                                    "name": "house",
                                    "type": "string"
                                },
                                {
                                    "internalType": "uint8",
                                    "name": "age",
                                    "type": "uint8"
                                }
                            ],
                            "internalType": "struct FighterAttributes",
                            "name": "attributes",
                            "type": "tuple"
                        }
                    ],
                    "internalType": "struct Fighter",
                    "name": "",
                    "type": "tuple"
                }
            ],
            "stateMutability": "view",
            "type": "function"
        },
        {
            "inputs": [
                {
                    "internalType": "address",
                    "name": "owner",
                    "type": "address"
                },
                {
                    "internalType": "address",
                    "name": "operator",
                    "type": "address"
                }
            ],
            "name": "isApprovedForAll",
            "outputs": [
                {
                    "internalType": "bool",
                    "name": "",
                    "type": "bool"
                }
            ],
            "stateMutability": "view",
            "type": "function"
        },
        {
            "inputs": [
                {
                    "internalType": "uint256",
                    "name": "_characterIndex",
                    "type": "uint256"
                }
            ],
            "name": "mintCharacterNFT",
            "outputs": [],
            "stateMutability": "nonpayable",
            "type": "function"
        },
        {
            "inputs": [],
            "name": "name",
            "outputs": [
                {
                    "internalType": "string",
                    "name": "",
                    "type": "string"
                }
            ],
            "stateMutability": "view",
            "type": "function"
        },
        {
            "inputs": [
                {
                    "internalType": "uint256",
                    "name": "",
                    "type": "uint256"
                }
            ],
            "name": "nftHolderAttributes",
            "outputs": [
                {
                    "internalType": "uint256",
                    "name": "tokenId",
                    "type": "uint256"
                },
                {
                    "internalType": "uint256",
                    "name": "createdAt",
                    "type": "uint256"
                },
                {
                    "components": [
                        {
                            "internalType": "uint256",
                            "name": "characterIndex",
                            "type": "uint256"
                        },
                        {
                            "internalType": "string",
                            "name": "name",
                            "type": "string"
                        },
                        {
                            "internalType": "string",
                            "name": "imageURI",
                            "type": "string"
                        },
                        {
                            "internalType": "uint256",
                            "name": "healthPoints",
                            "type": "uint256"
                        },
                        {
                            "internalType": "uint256",
                            "name": "maxHealthPoints",
                            "type": "uint256"
                        },
                        {
                            "internalType": "uint256",
                            "name": "attackDamage",
                            "type": "uint256"
                        },
                        {
                            "internalType": "string",
                            "name": "house",
                            "type": "string"
                        },
                        {
                            "internalType": "uint8",
                            "name": "age",
                            "type": "uint8"
                        }
                    ],
                    "internalType": "struct FighterAttributes",
                    "name": "attributes",
                    "type": "tuple"
                }
            ],
            "stateMutability": "view",
            "type": "function"
        },
        {
            "inputs": [
                {
                    "internalType": "uint256",
                    "name": "",
                    "type": "uint256"
                }
            ],
            "name": "nftHolders",
            "outputs": [
                {
                    "internalType": "address",
                    "name": "",
                    "type": "address"
                }
            ],
            "stateMutability": "view",
            "type": "function"
        },
        {
            "inputs": [
                {
                    "internalType": "uint256",
                    "name": "tokenId",
                    "type": "uint256"
                }
            ],
            "name": "ownerOf",
            "outputs": [
                {
                    "internalType": "address",
                    "name": "",
                    "type": "address"
                }
            ],
            "stateMutability": "view",
            "type": "function"
        },
        {
            "inputs": [
                {
                    "internalType": "address",
                    "name": "from",
                    "type": "address"
                },
                {
                    "internalType": "address",
                    "name": "to",
                    "type": "address"
                },
                {
                    "internalType": "uint256",
                    "name": "tokenId",
                    "type": "uint256"
                }
            ],
            "name": "safeTransferFrom",
            "outputs": [],
            "stateMutability": "nonpayable",
            "type": "function"
        },
        {
            "inputs": [
                {
                    "internalType": "address",
                    "name": "from",
                    "type": "address"
                },
                {
                    "internalType": "address",
                    "name": "to",
                    "type": "address"
                },
                {
                    "internalType": "uint256",
                    "name": "tokenId",
                    "type": "uint256"
                },
                {
                    "internalType": "bytes",
                    "name": "_data",
                    "type": "bytes"
                }
            ],
            "name": "safeTransferFrom",
            "outputs": [],
            "stateMutability": "nonpayable",
            "type": "function"
        },
        {
            "inputs": [
                {
                    "internalType": "address",
                    "name": "operator",
                    "type": "address"
                },
                {
                    "internalType": "bool",
                    "name": "approved",
                    "type": "bool"
                }
            ],
            "name": "setApprovalForAll",
            "outputs": [],
            "stateMutability": "nonpayable",
            "type": "function"
        },
        {
            "inputs": [
                {
                    "internalType": "bytes4",
                    "name": "interfaceId",
                    "type": "bytes4"
                }
            ],
            "name": "supportsInterface",
            "outputs": [
                {
                    "internalType": "bool",
                    "name": "",
                    "type": "bool"
                }
            ],
            "stateMutability": "view",
            "type": "function"
        },
        {
            "inputs": [],
            "name": "symbol",
            "outputs": [
                {
                    "internalType": "string",
                    "name": "",
                    "type": "string"
                }
            ],
            "stateMutability": "view",
            "type": "function"
        },
        {
            "inputs": [
                {
                    "internalType": "uint256",
                    "name": "_tokenId",
                    "type": "uint256"
                }
            ],
            "name": "tokenURI",
            "outputs": [
                {
                    "internalType": "string",
                    "name": "",
                    "type": "string"
                }
            ],
            "stateMutability": "view",
            "type": "function"
        },
        {
            "inputs": [
                {
                    "internalType": "address",
                    "name": "from",
                    "type": "address"
                },
                {
                    "internalType": "address",
                    "name": "to",
                    "type": "address"
                },
                {
                    "internalType": "uint256",
                    "name": "tokenId",
                    "type": "uint256"
                }
            ],
            "name": "transferFrom",
            "outputs": [],
            "stateMutability": "nonpayable",
            "type": "function"
        }
    ],
    "bytecode": "0x6080604052604051620056093803806200560983398181016040528101906200002991906200074f565b6040518060400160405280600c81526020017f49636520616e64204669726500000000000000000000000000000000000000008152506040518060400160405280600381526020017f49414600000000000000000000000000000000000000000000000000000000008152508160009080519060200190620000ad929190620003fe565b508060019080519060200190620000c6929190620003fe565b505050620000e06007620003e860201b620020131760201c565b60005b8651811015620003db5760066040518061010001604052808381526020018984815181106200013b577f4e487b7100000000000000000000000000000000000000000000000000000000600052603260045260246000fd5b6020026020010151815260200188848151811062000182577f4e487b7100000000000000000000000000000000000000000000000000000000600052603260045260246000fd5b60200260200101518152602001878481518110620001c9577f4e487b7100000000000000000000000000000000000000000000000000000000600052603260045260246000fd5b6020026020010151815260200187848151811062000210577f4e487b7100000000000000000000000000000000000000000000000000000000600052603260045260246000fd5b6020026020010151815260200186848151811062000257577f4e487b7100000000000000000000000000000000000000000000000000000000600052603260045260246000fd5b602002602001015181526020018584815181106200029e577f4e487b7100000000000000000000000000000000000000000000000000000000600052603260045260246000fd5b60200260200101518152602001848481518110620002e5577f4e487b7100000000000000000000000000000000000000000000000000000000600052603260045260246000fd5b602002602001015160ff16815250908060018154018082558091505060019003906000526020600020906008020160009091909190915060008201518160000155602082015181600101908051906020019062000344929190620003fe565b50604082015181600201908051906020019062000363929190620003fe565b50606082015181600301556080820151816004015560a0820151816005015560c0820151816006019080519060200190620003a0929190620003fe565b5060e08201518160070160006101000a81548160ff021916908360ff1602179055505050600181620003d3919062000967565b9050620000e3565b5050505050505062000b4f565b6001816000016000828254019250508190555050565b8280546200040c9062000a11565b90600052602060002090601f0160209004810192826200043057600085556200047c565b82601f106200044b57805160ff19168380011785556200047c565b828001600101855582156200047c579182015b828111156200047b5782518255916020019190600101906200045e565b5b5090506200048b91906200048f565b5090565b5b80821115620004aa57600081600090555060010162000490565b5090565b6000620004c5620004bf84620008a4565b6200087b565b90508083825260208201905082856020860282011115620004e557600080fd5b60005b858110156200053457815167ffffffffffffffff8111156200050957600080fd5b808601620005188982620006f4565b85526020850194506020840193505050600181019050620004e8565b5050509392505050565b6000620005556200054f84620008d3565b6200087b565b905080838252602082019050828560208602820111156200057557600080fd5b60005b85811015620005a957816200058e888262000721565b84526020840193506020830192505060018101905062000578565b5050509392505050565b6000620005ca620005c48462000902565b6200087b565b90508083825260208201905082856020860282011115620005ea57600080fd5b60005b858110156200061e578162000603888262000738565b845260208401935060208301925050600181019050620005ed565b5050509392505050565b60006200063f620006398462000931565b6200087b565b9050828152602081018484840111156200065857600080fd5b62000665848285620009db565b509392505050565b600082601f8301126200067f57600080fd5b815162000691848260208601620004ae565b91505092915050565b600082601f830112620006ac57600080fd5b8151620006be8482602086016200053e565b91505092915050565b600082601f830112620006d957600080fd5b8151620006eb848260208601620005b3565b91505092915050565b600082601f8301126200070657600080fd5b81516200071884826020860162000628565b91505092915050565b600081519050620007328162000b1b565b92915050565b600081519050620007498162000b35565b92915050565b60008060008060008060c087890312156200076957600080fd5b600087015167ffffffffffffffff8111156200078457600080fd5b6200079289828a016200066d565b965050602087015167ffffffffffffffff811115620007b057600080fd5b620007be89828a016200066d565b955050604087015167ffffffffffffffff811115620007dc57600080fd5b620007ea89828a016200069a565b945050606087015167ffffffffffffffff8111156200080857600080fd5b6200081689828a016200069a565b935050608087015167ffffffffffffffff8111156200083457600080fd5b6200084289828a016200066d565b92505060a087015167ffffffffffffffff8111156200086057600080fd5b6200086e89828a01620006c7565b9150509295509295509295565b6000620008876200089a565b905062000895828262000a47565b919050565b6000604051905090565b600067ffffffffffffffff821115620008c257620008c162000adb565b5b602082029050602081019050919050565b600067ffffffffffffffff821115620008f157620008f062000adb565b5b602082029050602081019050919050565b600067ffffffffffffffff82111562000920576200091f62000adb565b5b602082029050602081019050919050565b600067ffffffffffffffff8211156200094f576200094e62000adb565b5b6200095a8262000b0a565b9050602081019050919050565b60006200097482620009c4565b91506200098183620009c4565b9250827fffffffffffffffffffffffffffffffffffffffffffffffffffffffffffffffff03821115620009b957620009b862000a7d565b5b828201905092915050565b6000819050919050565b600060ff82169050919050565b60005b83811015620009fb578082015181840152602081019050620009de565b8381111562000a0b576000848401525b50505050565b6000600282049050600182168062000a2a57607f821691505b6020821081141562000a415762000a4062000aac565b5b50919050565b62000a528262000b0a565b810181811067ffffffffffffffff8211171562000a745762000a7362000adb565b5b80604052505050565b7f4e487b7100000000000000000000000000000000000000000000000000000000600052601160045260246000fd5b7f4e487b7100000000000000000000000000000000000000000000000000000000600052602260045260246000fd5b7f4e487b7100000000000000000000000000000000000000000000000000000000600052604160045260246000fd5b6000601f19601f8301169050919050565b62000b2681620009c4565b811462000b3257600080fd5b50565b62000b4081620009ce565b811462000b4c57600080fd5b50565b614aaa8062000b5f6000396000f3fe608060405234801561001057600080fd5b50600436106101375760003560e01c80637918d00a116100b8578063b953084e1161007c578063b953084e14610360578063c87b56dd1461037e578063e985e9c5146103ae578063f7a0a824146103de578063f8b81ef714610415578063fd32dd9e1461043157610137565b80637918d00a146102bc57806395d89b41146102d857806398da4c95146102f6578063a22cb46514610328578063b88d4fde1461034457610137565b80631cf5ee1c116100ff5780631cf5ee1c1461020657806323b872dd1461022457806342842e0e146102405780636352211e1461025c57806370a082311461028c57610137565b806301ffc9a71461013c57806306fdde031461016c578063081812fc1461018a578063095ea7b3146101ba5780631c49b574146101d6575b600080fd5b610156600480360381019061015191906131e8565b610461565b6040516101639190613b91565b60405180910390f35b610174610543565b6040516101819190613bac565b60405180910390f35b6101a4600480360381019061019f919061323a565b6105d5565b6040516101b19190613aaf565b60405180910390f35b6101d460048036038101906101cf91906131ac565b61065a565b005b6101f060048036038101906101eb919061323a565b610772565b6040516101fd9190613dce565b60405180910390f35b61020e610a3d565b60405161021b9190613b6f565b60405180910390f35b61023e600480360381019061023991906130a6565b610ad2565b005b61025a600480360381019061025591906130a6565b610b32565b005b6102766004803603810190610271919061323a565b610b52565b6040516102839190613aaf565b60405180910390f35b6102a660048036038101906102a19190613041565b610c04565b6040516102b39190613df0565b60405180910390f35b6102d660048036038101906102d19190613263565b610cbc565b005b6102e0610ebc565b6040516102ed9190613bac565b60405180910390f35b610310600480360381019061030b919061323a565b610f4e565b60405161031f93929190613e9e565b60405180910390f35b610342600480360381019061033d9190613170565b61117e565b005b61035e600480360381019061035991906130f5565b611194565b005b6103686111f6565b6040516103759190613b4d565b60405180910390f35b6103986004803603810190610393919061323a565b611451565b6040516103a59190613bac565b60405180910390f35b6103c860048036038101906103c3919061306a565b611758565b6040516103d59190613b91565b60405180910390f35b6103f860048036038101906103f3919061323a565b6117ec565b60405161040c989796959493929190613e0b565b60405180910390f35b61042f600480360381019061042a919061323a565b6119e9565b005b61044b6004803603810190610446919061323a565b611fe0565b6040516104589190613aaf565b60405180910390f35b60007f80ac58cd000000000000000000000000000000000000000000000000000000007bffffffffffffffffffffffffffffffffffffffffffffffffffffffff1916827bffffffffffffffffffffffffffffffffffffffffffffffffffffffff1916148061052c57507f5b5e139f000000000000000000000000000000000000000000000000000000007bffffffffffffffffffffffffffffffffffffffffffffffffffffffff1916827bffffffffffffffffffffffffffffffffffffffffffffffffffffffff1916145b8061053c575061053b82612029565b5b9050919050565b606060008054610552906141d0565b80601f016020809104026020016040519081016040528092919081815260200182805461057e906141d0565b80156105cb5780601f106105a0576101008083540402835291602001916105cb565b820191906000526020600020905b8154815290600101906020018083116105ae57829003601f168201915b5050505050905090565b60006105e082612093565b61061f576040517f08c379a000000000000000000000000000000000000000000000000000000000815260040161061690613d2e565b60405180910390fd5b6004600083815260200190815260200160002060009054906101000a900473ffffffffffffffffffffffffffffffffffffffff169050919050565b600061066582610b52565b90508073ffffffffffffffffffffffffffffffffffffffff168373ffffffffffffffffffffffffffffffffffffffff1614156106d6576040517f08c379a00000000000000000000000000000000000000000000000000000000081526004016106cd90613d6e565b60405180910390fd5b8073ffffffffffffffffffffffffffffffffffffffff166106f56120ff565b73ffffffffffffffffffffffffffffffffffffffff16148061072457506107238161071e6120ff565b611758565b5b610763576040517f08c379a000000000000000000000000000000000000000000000000000000000815260040161075a90613cae565b60405180910390fd5b61076d8383612107565b505050565b61077a612e5e565b610782612e5e565b600073ffffffffffffffffffffffffffffffffffffffff166009600085815260200190815260200160002060009054906101000a900473ffffffffffffffffffffffffffffffffffffffff1673ffffffffffffffffffffffffffffffffffffffff1614610a3357600860008481526020019081526020016000206040518060600160405290816000820154815260200160018201548152602001600282016040518061010001604052908160008201548152602001600182018054610846906141d0565b80601f0160208091040260200160405190810160405280929190818152602001828054610872906141d0565b80156108bf5780601f10610894576101008083540402835291602001916108bf565b820191906000526020600020905b8154815290600101906020018083116108a257829003601f168201915b505050505081526020016002820180546108d8906141d0565b80601f0160208091040260200160405190810160405280929190818152602001828054610904906141d0565b80156109515780601f1061092657610100808354040283529160200191610951565b820191906000526020600020905b81548152906001019060200180831161093457829003601f168201915b50505050508152602001600382015481526020016004820154815260200160058201548152602001600682018054610988906141d0565b80601f01602080910402602001604051908101604052809291908181526020018280546109b4906141d0565b8015610a015780601f106109d657610100808354040283529160200191610a01565b820191906000526020600020905b8154815290600101906020018083116109e457829003601f168201915b505050505081526020016007820160009054906101000a900460ff1660ff1660ff168152505081525050915050610a38565b809150505b919050565b6060600a60003373ffffffffffffffffffffffffffffffffffffffff1673ffffffffffffffffffffffffffffffffffffffff168152602001908152602001600020805480602002602001604051908101604052809291908181526020018280548015610ac857602002820191906000526020600020905b815481526020019060010190808311610ab4575b5050505050905090565b610ae3610add6120ff565b826121c0565b610b22576040517f08c379a0000000000000000000000000000000000000000000000000000000008152600401610b1990613dae565b60405180910390fd5b610b2d83838361229e565b505050565b610b4d83838360405180602001604052806000815250611194565b505050565b6000806002600084815260200190815260200160002060009054906101000a900473ffffffffffffffffffffffffffffffffffffffff169050600073ffffffffffffffffffffffffffffffffffffffff168173ffffffffffffffffffffffffffffffffffffffff161415610bfb576040517f08c379a0000000000000000000000000000000000000000000000000000000008152600401610bf290613cee565b60405180910390fd5b80915050919050565b60008073ffffffffffffffffffffffffffffffffffffffff168273ffffffffffffffffffffffffffffffffffffffff161415610c75576040517f08c379a0000000000000000000000000000000000000000000000000000000008152600401610c6c90613cce565b60405180910390fd5b600360008373ffffffffffffffffffffffffffffffffffffffff1673ffffffffffffffffffffffffffffffffffffffff168152602001908152602001600020549050919050565b600060086000848152602001908152602001600020905060006008600084815260200190815260200160002090503373ffffffffffffffffffffffffffffffffffffffff166009600086815260200190815260200160002060009054906101000a900473ffffffffffffffffffffffffffffffffffffffff1673ffffffffffffffffffffffffffffffffffffffff1614610d8b576040517f08c379a0000000000000000000000000000000000000000000000000000000008152600401610d8290613d4e565b60405180910390fd5b6000826002016003015411610dd5576040517f08c379a0000000000000000000000000000000000000000000000000000000008152600401610dcc90613d8e565b60405180910390fd5b6000816002016003015411610e1f576040517f08c379a0000000000000000000000000000000000000000000000000000000008152600401610e1690613c8e565b60405180910390fd5b816002016005015481600201600301541015610e475760008160020160030181905550610e6d565b81600201600501548160020160030154610e6191906140d9565b81600201600301819055505b7f32bd565ee3f2cb5ddd742bbecd6048d3e9abe90b3827a40c2b72d232e71e3c9d3383600201600301548360020160030154604051610eae93929190613b16565b60405180910390a150505050565b606060018054610ecb906141d0565b80601f0160208091040260200160405190810160405280929190818152602001828054610ef7906141d0565b8015610f445780601f10610f1957610100808354040283529160200191610f44565b820191906000526020600020905b815481529060010190602001808311610f2757829003601f168201915b5050505050905090565b6008602052806000526040600020600091509050806000015490806001015490806002016040518061010001604052908160008201548152602001600182018054610f98906141d0565b80601f0160208091040260200160405190810160405280929190818152602001828054610fc4906141d0565b80156110115780601f10610fe657610100808354040283529160200191611011565b820191906000526020600020905b815481529060010190602001808311610ff457829003601f168201915b5050505050815260200160028201805461102a906141d0565b80601f0160208091040260200160405190810160405280929190818152602001828054611056906141d0565b80156110a35780601f10611078576101008083540402835291602001916110a3565b820191906000526020600020905b81548152906001019060200180831161108657829003601f168201915b505050505081526020016003820154815260200160048201548152602001600582015481526020016006820180546110da906141d0565b80601f0160208091040260200160405190810160405280929190818152602001828054611106906141d0565b80156111535780601f1061112857610100808354040283529160200191611153565b820191906000526020600020905b81548152906001019060200180831161113657829003601f168201915b505050505081526020016007820160009054906101000a900460ff1660ff1660ff1681525050905083565b6111906111896120ff565b8383612505565b5050565b6111a561119f6120ff565b836121c0565b6111e4576040517f08c379a00000000000000000000000000000000000000000000000000000000081526004016111db90613dae565b60405180910390fd5b6111f084848484612672565b50505050565b60606006805480602002602001604051908101604052809291908181526020016000905b8282101561144857838290600052602060002090600802016040518061010001604052908160008201548152602001600182018054611258906141d0565b80601f0160208091040260200160405190810160405280929190818152602001828054611284906141d0565b80156112d15780601f106112a6576101008083540402835291602001916112d1565b820191906000526020600020905b8154815290600101906020018083116112b457829003601f168201915b505050505081526020016002820180546112ea906141d0565b80601f0160208091040260200160405190810160405280929190818152602001828054611316906141d0565b80156113635780601f1061133857610100808354040283529160200191611363565b820191906000526020600020905b81548152906001019060200180831161134657829003601f168201915b5050505050815260200160038201548152602001600482015481526020016005820154815260200160068201805461139a906141d0565b80601f01602080910402602001604051908101604052809291908181526020018280546113c6906141d0565b80156114135780601f106113e857610100808354040283529160200191611413565b820191906000526020600020905b8154815290600101906020018083116113f657829003601f168201915b505050505081526020016007820160009054906101000a900460ff1660ff1660ff16815250508152602001906001019061121a565b50505050905090565b606060006008600084815260200190815260200160002060405180606001604052908160008201548152602001600182015481526020016002820160405180610100016040529081600082015481526020016001820180546114b2906141d0565b80601f01602080910402602001604051908101604052809291908181526020018280546114de906141d0565b801561152b5780601f106115005761010080835404028352916020019161152b565b820191906000526020600020905b81548152906001019060200180831161150e57829003601f168201915b50505050508152602001600282018054611544906141d0565b80601f0160208091040260200160405190810160405280929190818152602001828054611570906141d0565b80156115bd5780601f10611592576101008083540402835291602001916115bd565b820191906000526020600020905b8154815290600101906020018083116115a057829003601f168201915b505050505081526020016003820154815260200160048201548152602001600582015481526020016006820180546115f4906141d0565b80601f0160208091040260200160405190810160405280929190818152602001828054611620906141d0565b801561166d5780601f106116425761010080835404028352916020019161166d565b820191906000526020600020905b81548152906001019060200180831161165057829003601f168201915b505050505081526020016007820160009054906101000a900460ff1660ff1660ff168152505081525050905060006116ac8260400151606001516126ce565b905060006116c18360400151608001516126ce565b905060006116d6846040015160a001516126ce565b905060006117248560400151602001516116ef896126ce565b876040015160400151878787604051602001611710969594939291906139e8565b60405160208183030381529060405261287b565b90506000816040516020016117399190613a8d565b6040516020818303038152906040529050809650505050505050919050565b6000600560008473ffffffffffffffffffffffffffffffffffffffff1673ffffffffffffffffffffffffffffffffffffffff16815260200190815260200160002060008373ffffffffffffffffffffffffffffffffffffffff1673ffffffffffffffffffffffffffffffffffffffff16815260200190815260200160002060009054906101000a900460ff16905092915050565b600681815481106117fc57600080fd5b9060005260206000209060080201600091509050806000015490806001018054611825906141d0565b80601f0160208091040260200160405190810160405280929190818152602001828054611851906141d0565b801561189e5780601f106118735761010080835404028352916020019161189e565b820191906000526020600020905b81548152906001019060200180831161188157829003601f168201915b5050505050908060020180546118b3906141d0565b80601f01602080910402602001604051908101604052809291908181526020018280546118df906141d0565b801561192c5780601f106119015761010080835404028352916020019161192c565b820191906000526020600020905b81548152906001019060200180831161190f57829003601f168201915b505050505090806003015490806004015490806005015490806006018054611953906141d0565b80601f016020809104026020016040519081016040528092919081815260200182805461197f906141d0565b80156119cc5780601f106119a1576101008083540402835291602001916119cc565b820191906000526020600020905b8154815290600101906020018083116119af57829003601f168201915b5050505050908060070160009054906101000a900460ff16905088565b60006119f56007612a39565b9050611a013382612a47565b604051806060016040528082815260200142815260200160405180610100016040528085815260200160068681548110611a64577f4e487b7100000000000000000000000000000000000000000000000000000000600052603260045260246000fd5b90600052602060002090600802016001018054611a80906141d0565b80601f0160208091040260200160405190810160405280929190818152602001828054611aac906141d0565b8015611af95780601f10611ace57610100808354040283529160200191611af9565b820191906000526020600020905b815481529060010190602001808311611adc57829003601f168201915b5050505050815260200160068681548110611b3d577f4e487b7100000000000000000000000000000000000000000000000000000000600052603260045260246000fd5b90600052602060002090600802016002018054611b59906141d0565b80601f0160208091040260200160405190810160405280929190818152602001828054611b85906141d0565b8015611bd25780601f10611ba757610100808354040283529160200191611bd2565b820191906000526020600020905b815481529060010190602001808311611bb557829003601f168201915b5050505050815260200160068681548110611c16577f4e487b7100000000000000000000000000000000000000000000000000000000600052603260045260246000fd5b906000526020600020906008020160030154815260200160068681548110611c67577f4e487b7100000000000000000000000000000000000000000000000000000000600052603260045260246000fd5b906000526020600020906008020160040154815260200160068681548110611cb8577f4e487b7100000000000000000000000000000000000000000000000000000000600052603260045260246000fd5b906000526020600020906008020160050154815260200160068681548110611d09577f4e487b7100000000000000000000000000000000000000000000000000000000600052603260045260246000fd5b90600052602060002090600802016006018054611d25906141d0565b80601f0160208091040260200160405190810160405280929190818152602001828054611d51906141d0565b8015611d9e5780601f10611d7357610100808354040283529160200191611d9e565b820191906000526020600020905b815481529060010190602001808311611d8157829003601f168201915b5050505050815260200160068681548110611de2577f4e487b7100000000000000000000000000000000000000000000000000000000600052603260045260246000fd5b906000526020600020906008020160070160009054906101000a900460ff1660ff16815250815250600860008381526020019081526020016000206000820151816000015560208201518160010155604082015181600201600082015181600001556020820151816001019080519060200190611e60929190612e85565b506040820151816002019080519060200190611e7d929190612e85565b50606082015181600301556080820151816004015560a0820151816005015560c0820151816006019080519060200190611eb8929190612e85565b5060e08201518160070160006101000a81548160ff021916908360ff1602179055505050905050336009600083815260200190815260200160002060006101000a81548173ffffffffffffffffffffffffffffffffffffffff021916908373ffffffffffffffffffffffffffffffffffffffff160217905550600a60003373ffffffffffffffffffffffffffffffffffffffff1673ffffffffffffffffffffffffffffffffffffffff1681526020019081526020016000208190806001815401808255809150506001900390600052602060002001600090919091909150557f4bc303fd457a97b4691b9af582ce71868a3d258638c8d4f8c60988a0f0bfb8cd338284604051611fca93929190613b16565b60405180910390a1611fdc6007612013565b5050565b60096020528060005260406000206000915054906101000a900473ffffffffffffffffffffffffffffffffffffffff1681565b6001816000016000828254019250508190555050565b60007f01ffc9a7000000000000000000000000000000000000000000000000000000007bffffffffffffffffffffffffffffffffffffffffffffffffffffffff1916827bffffffffffffffffffffffffffffffffffffffffffffffffffffffff1916149050919050565b60008073ffffffffffffffffffffffffffffffffffffffff166002600084815260200190815260200160002060009054906101000a900473ffffffffffffffffffffffffffffffffffffffff1673ffffffffffffffffffffffffffffffffffffffff1614159050919050565b600033905090565b816004600083815260200190815260200160002060006101000a81548173ffffffffffffffffffffffffffffffffffffffff021916908373ffffffffffffffffffffffffffffffffffffffff160217905550808273ffffffffffffffffffffffffffffffffffffffff1661217a83610b52565b73ffffffffffffffffffffffffffffffffffffffff167f8c5be1e5ebec7d5bd14f71427d1e84f3dd0314c0f7b2291e5b200ac8c7c3b92560405160405180910390a45050565b60006121cb82612093565b61220a576040517f08c379a000000000000000000000000000000000000000000000000000000000815260040161220190613c6e565b60405180910390fd5b600061221583610b52565b90508073ffffffffffffffffffffffffffffffffffffffff168473ffffffffffffffffffffffffffffffffffffffff16148061225757506122568185611758565b5b8061229557508373ffffffffffffffffffffffffffffffffffffffff1661227d846105d5565b73ffffffffffffffffffffffffffffffffffffffff16145b91505092915050565b8273ffffffffffffffffffffffffffffffffffffffff166122be82610b52565b73ffffffffffffffffffffffffffffffffffffffff1614612314576040517f08c379a000000000000000000000000000000000000000000000000000000000815260040161230b90613bee565b60405180910390fd5b600073ffffffffffffffffffffffffffffffffffffffff168273ffffffffffffffffffffffffffffffffffffffff161415612384576040517f08c379a000000000000000000000000000000000000000000000000000000000815260040161237b90613c2e565b60405180910390fd5b61238f838383612a65565b61239a600082612107565b6001600360008573ffffffffffffffffffffffffffffffffffffffff1673ffffffffffffffffffffffffffffffffffffffff16815260200190815260200160002060008282546123ea91906140d9565b925050819055506001600360008473ffffffffffffffffffffffffffffffffffffffff1673ffffffffffffffffffffffffffffffffffffffff16815260200190815260200160002060008282546124419190613ff8565b92505081905550816002600083815260200190815260200160002060006101000a81548173ffffffffffffffffffffffffffffffffffffffff021916908373ffffffffffffffffffffffffffffffffffffffff160217905550808273ffffffffffffffffffffffffffffffffffffffff168473ffffffffffffffffffffffffffffffffffffffff167fddf252ad1be2c89b69c2b068fc378daa952ba7f163c4a11628f55a4df523b3ef60405160405180910390a4612500838383612a6a565b505050565b8173ffffffffffffffffffffffffffffffffffffffff168373ffffffffffffffffffffffffffffffffffffffff161415612574576040517f08c379a000000000000000000000000000000000000000000000000000000000815260040161256b90613c4e565b60405180910390fd5b80600560008573ffffffffffffffffffffffffffffffffffffffff1673ffffffffffffffffffffffffffffffffffffffff16815260200190815260200160002060008473ffffffffffffffffffffffffffffffffffffffff1673ffffffffffffffffffffffffffffffffffffffff16815260200190815260200160002060006101000a81548160ff0219169083151502179055508173ffffffffffffffffffffffffffffffffffffffff168373ffffffffffffffffffffffffffffffffffffffff167f17307eab39ab6107e8899845ad3d59bd9653f200f220920489ca2b5937696c31836040516126659190613b91565b60405180910390a3505050565b61267d84848461229e565b61268984848484612a6f565b6126c8576040517f08c379a00000000000000000000000000000000000000000000000000000000081526004016126bf90613bce565b60405180910390fd5b50505050565b60606000821415612716576040518060400160405280600181526020017f30000000000000000000000000000000000000000000000000000000000000008152509050612876565b600082905060005b6000821461274857808061273190614233565b915050600a82612741919061404e565b915061271e565b60008167ffffffffffffffff81111561278a577f4e487b7100000000000000000000000000000000000000000000000000000000600052604160045260246000fd5b6040519080825280601f01601f1916602001820160405280156127bc5781602001600182028036833780820191505090505b5090505b6000851461286f576001826127d591906140d9565b9150600a856127e4919061427c565b60306127f09190613ff8565b60f81b81838151811061282c577f4e487b7100000000000000000000000000000000000000000000000000000000600052603260045260246000fd5b60200101907effffffffffffffffffffffffffffffffffffffffffffffffffffffffffffff1916908160001a905350600a85612868919061404e565b94506127c0565b8093505050505b919050565b606060008251905060008114156128a45760405180602001604052806000815250915050612a34565b600060036002836128b59190613ff8565b6128bf919061404e565b60046128cb919061407f565b905060006020826128dc9190613ff8565b67ffffffffffffffff81111561291b577f4e487b7100000000000000000000000000000000000000000000000000000000600052604160045260246000fd5b6040519080825280601f01601f19166020018201604052801561294d5781602001600182028036833780820191505090505b5090506000604051806060016040528060408152602001614a35604091399050600181016020830160005b868110156129f15760038101905062ffffff818a015116603f8160121c168401518060081b905060ff603f83600c1c1686015116810190508060081b905060ff603f8360061c1686015116810190508060081b905060ff603f831686015116810190508060e01b90508084526004840193505050612978565b506003860660018114612a0b5760028114612a1b57612a26565b613d3d60f01b6002830352612a26565b603d60f81b60018303525b508484525050819450505050505b919050565b600081600001549050919050565b612a61828260405180602001604052806000815250612c06565b5050565b505050565b505050565b6000612a908473ffffffffffffffffffffffffffffffffffffffff16612c61565b15612bf9578373ffffffffffffffffffffffffffffffffffffffff1663150b7a02612ab96120ff565b8786866040518563ffffffff1660e01b8152600401612adb9493929190613aca565b602060405180830381600087803b158015612af557600080fd5b505af1925050508015612b2657506040513d601f19601f82011682018060405250810190612b239190613211565b60015b612ba9573d8060008114612b56576040519150601f19603f3d011682016040523d82523d6000602084013e612b5b565b606091505b50600081511415612ba1576040517f08c379a0000000000000000000000000000000000000000000000000000000008152600401612b9890613bce565b60405180910390fd5b805181602001fd5b63150b7a0260e01b7bffffffffffffffffffffffffffffffffffffffffffffffffffffffff1916817bffffffffffffffffffffffffffffffffffffffffffffffffffffffff191614915050612bfe565b600190505b949350505050565b612c108383612c84565b612c1d6000848484612a6f565b612c5c576040517f08c379a0000000000000000000000000000000000000000000000000000000008152600401612c5390613bce565b60405180910390fd5b505050565b6000808273ffffffffffffffffffffffffffffffffffffffff163b119050919050565b600073ffffffffffffffffffffffffffffffffffffffff168273ffffffffffffffffffffffffffffffffffffffff161415612cf4576040517f08c379a0000000000000000000000000000000000000000000000000000000008152600401612ceb90613d0e565b60405180910390fd5b612cfd81612093565b15612d3d576040517f08c379a0000000000000000000000000000000000000000000000000000000008152600401612d3490613c0e565b60405180910390fd5b612d4960008383612a65565b6001600360008473ffffffffffffffffffffffffffffffffffffffff1673ffffffffffffffffffffffffffffffffffffffff1681526020019081526020016000206000828254612d999190613ff8565b92505081905550816002600083815260200190815260200160002060006101000a81548173ffffffffffffffffffffffffffffffffffffffff021916908373ffffffffffffffffffffffffffffffffffffffff160217905550808273ffffffffffffffffffffffffffffffffffffffff16600073ffffffffffffffffffffffffffffffffffffffff167fddf252ad1be2c89b69c2b068fc378daa952ba7f163c4a11628f55a4df523b3ef60405160405180910390a4612e5a60008383612a6a565b5050565b60405180606001604052806000815260200160008152602001612e7f612f0b565b81525090565b828054612e91906141d0565b90600052602060002090601f016020900481019282612eb35760008555612efa565b82601f10612ecc57805160ff1916838001178555612efa565b82800160010185558215612efa579182015b82811115612ef9578251825591602001919060010190612ede565b5b509050612f079190612f53565b5090565b60405180610100016040528060008152602001606081526020016060815260200160008152602001600081526020016000815260200160608152602001600060ff1681525090565b5b80821115612f6c576000816000905550600101612f54565b5090565b6000612f83612f7e84613f01565b613edc565b905082815260208101848484011115612f9b57600080fd5b612fa684828561418e565b509392505050565b600081359050612fbd816149d8565b92915050565b600081359050612fd2816149ef565b92915050565b600081359050612fe781614a06565b92915050565b600081519050612ffc81614a06565b92915050565b600082601f83011261301357600080fd5b8135613023848260208601612f70565b91505092915050565b60008135905061303b81614a1d565b92915050565b60006020828403121561305357600080fd5b600061306184828501612fae565b91505092915050565b6000806040838503121561307d57600080fd5b600061308b85828601612fae565b925050602061309c85828601612fae565b9150509250929050565b6000806000606084860312156130bb57600080fd5b60006130c986828701612fae565b93505060206130da86828701612fae565b92505060406130eb8682870161302c565b9150509250925092565b6000806000806080858703121561310b57600080fd5b600061311987828801612fae565b945050602061312a87828801612fae565b935050604061313b8782880161302c565b925050606085013567ffffffffffffffff81111561315857600080fd5b61316487828801613002565b91505092959194509250565b6000806040838503121561318357600080fd5b600061319185828601612fae565b92505060206131a285828601612fc3565b9150509250929050565b600080604083850312156131bf57600080fd5b60006131cd85828601612fae565b92505060206131de8582860161302c565b9150509250929050565b6000602082840312156131fa57600080fd5b600061320884828501612fd8565b91505092915050565b60006020828403121561322357600080fd5b600061323184828501612fed565b91505092915050565b60006020828403121561324c57600080fd5b600061325a8482850161302c565b91505092915050565b6000806040838503121561327657600080fd5b60006132848582860161302c565b92505060206132958582860161302c565b9150509250929050565b60006132ab83836137e0565b905092915050565b60006132bf83836139ac565b60208301905092915050565b6132d48161410d565b82525050565b60006132e582613f52565b6132ef8185613f98565b93508360208202850161330185613f32565b8060005b8581101561333d578484038952815161331e858261329f565b945061332983613f7e565b925060208a01995050600181019050613305565b50829750879550505050505092915050565b600061335a82613f5d565b6133648185613fa9565b935061336f83613f42565b8060005b838110156133a057815161338788826132b3565b975061339283613f8b565b925050600181019050613373565b5085935050505092915050565b6133b68161411f565b82525050565b60006133c782613f68565b6133d18185613fba565b93506133e181856020860161419d565b6133ea81614369565b840191505092915050565b600061340082613f73565b61340a8185613fcb565b935061341a81856020860161419d565b61342381614369565b840191505092915050565b600061343982613f73565b6134438185613fdc565b935061345381856020860161419d565b61345c81614369565b840191505092915050565b600061347282613f73565b61347c8185613fed565b935061348c81856020860161419d565b80840191505092915050565b60006134a5600b83613fed565b91506134b08261437a565b600b82019050919050565b60006134c8603283613fdc565b91506134d3826143a3565b604082019050919050565b60006134eb602583613fdc565b91506134f6826143f2565b604082019050919050565b600061350e601c83613fdc565b915061351982614441565b602082019050919050565b6000613531600e83613fed565b915061353c8261446a565b600e82019050919050565b6000613554602483613fdc565b915061355f82614493565b604082019050919050565b6000613577601983613fdc565b9150613582826144e2565b602082019050919050565b600061359a602c83613fdc565b91506135a58261450b565b604082019050919050565b60006135bd602b83613fdc565b91506135c88261455a565b604082019050919050565b60006135e0603883613fdc565b91506135eb826145a9565b604082019050919050565b6000613603602a83613fdc565b915061360e826145f8565b604082019050919050565b6000613626602983613fdc565b915061363182614647565b604082019050919050565b6000613649606283613fed565b915061365482614696565b606282019050919050565b600061366c600483613fed565b915061367782614731565b600482019050919050565b600061368f602083613fdc565b915061369a8261475a565b602082019050919050565b60006136b2602c83613fdc565b91506136bd82614783565b604082019050919050565b60006136d5600a83613fed565b91506136e0826147d2565b600a82019050919050565b60006136f8601c83613fdc565b9150613703826147fb565b602082019050919050565b600061371b602183613fdc565b915061372682614824565b604082019050919050565b600061373e601d83613fed565b915061374982614873565b601d82019050919050565b6000613761602b83613fdc565b915061376c8261489c565b604082019050919050565b6000613784603183613fdc565b915061378f826148eb565b604082019050919050565b60006137a7603d83613fed565b91506137b28261493a565b603d82019050919050565b60006137ca602d83613fed565b91506137d582614989565b602d82019050919050565b6000610100830160008301516137f960008601826139ac565b506020830151848203602086015261381182826133f5565b9150506040830151848203604086015261382b82826133f5565b915050606083015161384060608601826139ac565b50608083015161385360808601826139ac565b5060a083015161386660a08601826139ac565b5060c083015184820360c086015261387e82826133f5565b91505060e083015161389360e08601826139ca565b508091505092915050565b6000610100830160008301516138b760008601826139ac565b50602083015184820360208601526138cf82826133f5565b915050604083015184820360408601526138e982826133f5565b91505060608301516138fe60608601826139ac565b50608083015161391160808601826139ac565b5060a083015161392460a08601826139ac565b5060c083015184820360c086015261393c82826133f5565b91505060e083015161395160e08601826139ca565b508091505092915050565b600060608301600083015161397460008601826139ac565b50602083015161398760208601826139ac565b506040830151848203604086015261399f82826137e0565b9150508091505092915050565b6139b581614177565b82525050565b6139c481614177565b82525050565b6139d381614181565b82525050565b6139e281614181565b82525050565b60006139f3826136c8565b91506139ff8289613467565b9150613a0a82613498565b9150613a168288613467565b9150613a218261363c565b9150613a2d8287613467565b9150613a388261379a565b9150613a448286613467565b9150613a4f82613524565b9150613a5b8285613467565b9150613a66826137bd565b9150613a728284613467565b9150613a7d8261365f565b9150819050979650505050505050565b6000613a9882613731565b9150613aa48284613467565b915081905092915050565b6000602082019050613ac460008301846132cb565b92915050565b6000608082019050613adf60008301876132cb565b613aec60208301866132cb565b613af960408301856139bb565b8181036060830152613b0b81846133bc565b905095945050505050565b6000606082019050613b2b60008301866132cb565b613b3860208301856139bb565b613b4560408301846139bb565b949350505050565b60006020820190508181036000830152613b6781846132da565b905092915050565b60006020820190508181036000830152613b89818461334f565b905092915050565b6000602082019050613ba660008301846133ad565b92915050565b60006020820190508181036000830152613bc6818461342e565b905092915050565b60006020820190508181036000830152613be7816134bb565b9050919050565b60006020820190508181036000830152613c07816134de565b9050919050565b60006020820190508181036000830152613c2781613501565b9050919050565b60006020820190508181036000830152613c4781613547565b9050919050565b60006020820190508181036000830152613c678161356a565b9050919050565b60006020820190508181036000830152613c878161358d565b9050919050565b60006020820190508181036000830152613ca7816135b0565b9050919050565b60006020820190508181036000830152613cc7816135d3565b9050919050565b60006020820190508181036000830152613ce7816135f6565b9050919050565b60006020820190508181036000830152613d0781613619565b9050919050565b60006020820190508181036000830152613d2781613682565b9050919050565b60006020820190508181036000830152613d47816136a5565b9050919050565b60006020820190508181036000830152613d67816136eb565b9050919050565b60006020820190508181036000830152613d878161370e565b9050919050565b60006020820190508181036000830152613da781613754565b9050919050565b60006020820190508181036000830152613dc781613777565b9050919050565b60006020820190508181036000830152613de8818461395c565b905092915050565b6000602082019050613e0560008301846139bb565b92915050565b600061010082019050613e21600083018b6139bb565b8181036020830152613e33818a61342e565b90508181036040830152613e47818961342e565b9050613e5660608301886139bb565b613e6360808301876139bb565b613e7060a08301866139bb565b81810360c0830152613e82818561342e565b9050613e9160e08301846139d9565b9998505050505050505050565b6000606082019050613eb360008301866139bb565b613ec060208301856139bb565b8181036040830152613ed2818461389e565b9050949350505050565b6000613ee6613ef7565b9050613ef28282614202565b919050565b6000604051905090565b600067ffffffffffffffff821115613f1c57613f1b61433a565b5b613f2582614369565b9050602081019050919050565b6000819050602082019050919050565b6000819050602082019050919050565b600081519050919050565b600081519050919050565b600081519050919050565b600081519050919050565b6000602082019050919050565b6000602082019050919050565b600082825260208201905092915050565b600082825260208201905092915050565b600082825260208201905092915050565b600082825260208201905092915050565b600082825260208201905092915050565b600081905092915050565b600061400382614177565b915061400e83614177565b9250827fffffffffffffffffffffffffffffffffffffffffffffffffffffffffffffffff03821115614043576140426142ad565b5b828201905092915050565b600061405982614177565b915061406483614177565b925082614074576140736142dc565b5b828204905092915050565b600061408a82614177565b915061409583614177565b9250817fffffffffffffffffffffffffffffffffffffffffffffffffffffffffffffffff04831182151516156140ce576140cd6142ad565b5b828202905092915050565b60006140e482614177565b91506140ef83614177565b925082821015614102576141016142ad565b5b828203905092915050565b600061411882614157565b9050919050565b60008115159050919050565b60007fffffffff0000000000000000000000000000000000000000000000000000000082169050919050565b600073ffffffffffffffffffffffffffffffffffffffff82169050919050565b6000819050919050565b600060ff82169050919050565b82818337600083830152505050565b60005b838110156141bb5780820151818401526020810190506141a0565b838111156141ca576000848401525b50505050565b600060028204905060018216806141e857607f821691505b602082108114156141fc576141fb61430b565b5b50919050565b61420b82614369565b810181811067ffffffffffffffff8211171561422a5761422961433a565b5b80604052505050565b600061423e82614177565b91507fffffffffffffffffffffffffffffffffffffffffffffffffffffffffffffffff821415614271576142706142ad565b5b600182019050919050565b600061428782614177565b915061429283614177565b9250826142a2576142a16142dc565b5b828206905092915050565b7f4e487b7100000000000000000000000000000000000000000000000000000000600052601160045260246000fd5b7f4e487b7100000000000000000000000000000000000000000000000000000000600052601260045260246000fd5b7f4e487b7100000000000000000000000000000000000000000000000000000000600052602260045260246000fd5b7f4e487b7100000000000000000000000000000000000000000000000000000000600052604160045260246000fd5b6000601f19601f8301169050919050565b7f202d2d204e465420233a20000000000000000000000000000000000000000000600082015250565b7f4552433732313a207472616e7366657220746f206e6f6e20455243373231526560008201527f63656976657220696d706c656d656e7465720000000000000000000000000000602082015250565b7f4552433732313a207472616e736665722066726f6d20696e636f72726563742060008201527f6f776e6572000000000000000000000000000000000000000000000000000000602082015250565b7f4552433732313a20746f6b656e20616c7265616479206d696e74656400000000600082015250565b7f2c20226d61785f76616c7565223a000000000000000000000000000000000000600082015250565b7f4552433732313a207472616e7366657220746f20746865207a65726f2061646460008201527f7265737300000000000000000000000000000000000000000000000000000000602082015250565b7f4552433732313a20617070726f766520746f2063616c6c657200000000000000600082015250565b7f4552433732313a206f70657261746f7220717565727920666f72206e6f6e657860008201527f697374656e7420746f6b656e0000000000000000000000000000000000000000602082015250565b7f446566656e64657220646f6573206e6f74206861766520656e6f75676820486560008201527f616c746820506f696e7473000000000000000000000000000000000000000000602082015250565b7f4552433732313a20617070726f76652063616c6c6572206973206e6f74206f7760008201527f6e6572206e6f7220617070726f76656420666f7220616c6c0000000000000000602082015250565b7f4552433732313a2062616c616e636520717565727920666f7220746865207a6560008201527f726f206164647265737300000000000000000000000000000000000000000000602082015250565b7f4552433732313a206f776e657220717565727920666f72206e6f6e657869737460008201527f656e7420746f6b656e0000000000000000000000000000000000000000000000602082015250565b7f222c20226465736372697074696f6e223a20225468697320697320616e204e4660008201527f542074686174206c6574732070656f706c6520706c617920696e20746865206760208201527f616d65204d657461766572736520536c6179657221222c2022696d616765223a60408201527f2022000000000000000000000000000000000000000000000000000000000000606082015250565b7f7d205d7d00000000000000000000000000000000000000000000000000000000600082015250565b7f4552433732313a206d696e7420746f20746865207a65726f2061646472657373600082015250565b7f4552433732313a20617070726f76656420717565727920666f72206e6f6e657860008201527f697374656e7420746f6b656e0000000000000000000000000000000000000000602082015250565b7f7b226e616d65223a202200000000000000000000000000000000000000000000600082015250565b7f596f7520617265206e6f7420746865206f776e6572206f66204e465400000000600082015250565b7f4552433732313a20617070726f76616c20746f2063757272656e74206f776e6560008201527f7200000000000000000000000000000000000000000000000000000000000000602082015250565b7f646174613a6170706c69636174696f6e2f6a736f6e3b6261736536342c000000600082015250565b7f41747461636b657220646f6573206e6f74206861766520656e6f75676820486560008201527f616c746820506f696e7473000000000000000000000000000000000000000000602082015250565b7f4552433732313a207472616e736665722063616c6c6572206973206e6f74206f60008201527f776e6572206e6f7220617070726f766564000000000000000000000000000000602082015250565b7f222c202261747472696275746573223a205b207b202274726169745f7479706560008201527f223a20224865616c746820506f696e7473222c202276616c7565223a20000000602082015250565b7f7d2c207b202274726169745f74797065223a202241747461636b2044616d616760008201527f65222c202276616c7565223a2000000000000000000000000000000000000000602082015250565b6149e18161410d565b81146149ec57600080fd5b50565b6149f88161411f565b8114614a0357600080fd5b50565b614a0f8161412b565b8114614a1a57600080fd5b50565b614a2681614177565b8114614a3157600080fd5b5056fe4142434445464748494a4b4c4d4e4f505152535455565758595a6162636465666768696a6b6c6d6e6f707172737475767778797a303132333435363738392b2fa26469706673582212206b673e77422c747c3fa3fe0815a4b65903b3473d9c60ef5aaa5e03926751965a64736f6c63430008040033",
    "linkReferences": {},
    "deployedLinkReferences": {}
}