{
    "_format": "hh-sol-artifact-1",
    "contractName": "IceFire",
    "sourceName": "contracts/IceFire.sol",
    "abi": [
        {
            "inputs": [
                {
                    "internalType": "string[]",
                    "name": "characterNames",
                    "type": "string[]"
                },
                {
                    "internalType": "string[]",
                    "name": "characterImageURIs",
                    "type": "string[]"
                },
                {
                    "internalType": "uint256[]",
                    "name": "characterHealthPoints",
                    "type": "uint256[]"
                },
                {
                    "internalType": "uint256[]",
                    "name": "characterAttackDmg",
                    "type": "uint256[]"
                },
                {
                    "internalType": "string[]",
                    "name": "house",
                    "type": "string[]"
                },
                {
                    "internalType": "uint256[]",
                    "name": "age",
                    "type": "uint256[]"
                }
            ],
            "stateMutability": "payable",
            "type": "constructor"
        },
        {
            "anonymous": false,
            "inputs": [
                {
                    "indexed": true,
                    "internalType": "address",
                    "name": "owner",
                    "type": "address"
                },
                {
                    "indexed": true,
                    "internalType": "address",
                    "name": "approved",
                    "type": "address"
                },
                {
                    "indexed": true,
                    "internalType": "uint256",
                    "name": "tokenId",
                    "type": "uint256"
                }
            ],
            "name": "Approval",
            "type": "event"
        },
        {
            "anonymous": false,
            "inputs": [
                {
                    "indexed": true,
                    "internalType": "address",
                    "name": "owner",
                    "type": "address"
                },
                {
                    "indexed": true,
                    "internalType": "address",
                    "name": "operator",
                    "type": "address"
                },
                {
                    "indexed": false,
                    "internalType": "bool",
                    "name": "approved",
                    "type": "bool"
                }
            ],
            "name": "ApprovalForAll",
            "type": "event"
        },
        {
            "anonymous": false,
            "inputs": [
                {
                    "indexed": false,
                    "internalType": "uint256",
                    "name": "defenderTokenId",
                    "type": "uint256"
                },
                {
                    "indexed": false,
                    "internalType": "uint256",
                    "name": "defenderHealthPoints",
                    "type": "uint256"
                }
            ],
            "name": "AttackComplete",
            "type": "event"
        },
        {
            "anonymous": false,
            "inputs": [
                {
                    "indexed": false,
                    "internalType": "address",
                    "name": "sender",
                    "type": "address"
                },
                {
                    "indexed": false,
                    "internalType": "uint256",
                    "name": "tokenId",
                    "type": "uint256"
                },
                {
                    "indexed": false,
                    "internalType": "uint256",
                    "name": "characterIndex",
                    "type": "uint256"
                }
            ],
            "name": "CharacterNFTMinted",
            "type": "event"
        },
        {
            "anonymous": false,
            "inputs": [
                {
                    "indexed": true,
                    "internalType": "address",
                    "name": "from",
                    "type": "address"
                },
                {
                    "indexed": true,
                    "internalType": "address",
                    "name": "to",
                    "type": "address"
                },
                {
                    "indexed": true,
                    "internalType": "uint256",
                    "name": "tokenId",
                    "type": "uint256"
                }
            ],
            "name": "Transfer",
            "type": "event"
        },
        {
            "inputs": [
                {
                    "internalType": "address",
                    "name": "to",
                    "type": "address"
                },
                {
                    "internalType": "uint256",
                    "name": "tokenId",
                    "type": "uint256"
                }
            ],
            "name": "approve",
            "outputs": [],
            "stateMutability": "nonpayable",
            "type": "function"
        },
        {
            "inputs": [
                {
                    "internalType": "uint256",
                    "name": "attackerTokenId",
                    "type": "uint256"
                },
                {
                    "internalType": "uint256",
                    "name": "defenderTokenId",
                    "type": "uint256"
                }
            ],
            "name": "attackPlayer",
            "outputs": [],
            "stateMutability": "nonpayable",
            "type": "function"
        },
        {
            "inputs": [
                {
                    "internalType": "address",
                    "name": "owner",
                    "type": "address"
                }
            ],
            "name": "balanceOf",
            "outputs": [
                {
                    "internalType": "uint256",
                    "name": "",
                    "type": "uint256"
                }
            ],
            "stateMutability": "view",
            "type": "function"
        },
        {
            "inputs": [
                {
                    "internalType": "uint256",
                    "name": "",
                    "type": "uint256"
                }
            ],
            "name": "defaultCharacters",
            "outputs": [
                {
                    "internalType": "uint256",
                    "name": "characterIndex",
                    "type": "uint256"
                },
                {
                    "internalType": "string",
                    "name": "name",
                    "type": "string"
                },
                {
                    "internalType": "string",
                    "name": "imageURI",
                    "type": "string"
                },
                {
                    "internalType": "uint256",
                    "name": "healthPoints",
                    "type": "uint256"
                },
                {
                    "internalType": "uint256",
                    "name": "maxHealthPoints",
                    "type": "uint256"
                },
                {
                    "internalType": "uint256",
                    "name": "attackDamage",
                    "type": "uint256"
                },
                {
                    "internalType": "string",
                    "name": "house",
                    "type": "string"
                },
                {
                    "internalType": "uint256",
                    "name": "age",
                    "type": "uint256"
                }
            ],
            "stateMutability": "view",
            "type": "function"
        },
        {
            "inputs": [],
            "name": "getAllDefaultCharacters",
            "outputs": [
                {
                    "components": [
                        {
                            "internalType": "uint256",
                            "name": "characterIndex",
                            "type": "uint256"
                        },
                        {
                            "internalType": "string",
                            "name": "name",
                            "type": "string"
                        },
                        {
                            "internalType": "string",
                            "name": "imageURI",
                            "type": "string"
                        },
                        {
                            "internalType": "uint256",
                            "name": "healthPoints",
                            "type": "uint256"
                        },
                        {
                            "internalType": "uint256",
                            "name": "maxHealthPoints",
                            "type": "uint256"
                        },
                        {
                            "internalType": "uint256",
                            "name": "attackDamage",
                            "type": "uint256"
                        },
                        {
                            "internalType": "string",
                            "name": "house",
                            "type": "string"
                        },
                        {
                            "internalType": "uint256",
                            "name": "age",
                            "type": "uint256"
                        }
                    ],
                    "internalType": "struct FighterAttributes[]",
                    "name": "",
                    "type": "tuple[]"
                }
            ],
            "stateMutability": "view",
            "type": "function"
        },
        {
            "inputs": [
                {
                    "internalType": "uint256",
                    "name": "tokenId",
                    "type": "uint256"
                }
            ],
            "name": "getApproved",
            "outputs": [
                {
                    "internalType": "address",
                    "name": "",
                    "type": "address"
                }
            ],
            "stateMutability": "view",
            "type": "function"
        },
        {
            "inputs": [],
            "name": "getPlayerNFTs",
            "outputs": [
                {
                    "internalType": "uint256[]",
                    "name": "",
                    "type": "uint256[]"
                }
            ],
            "stateMutability": "view",
            "type": "function"
        },
        {
            "inputs": [
                {
                    "internalType": "uint256",
                    "name": "_tokenId",
                    "type": "uint256"
                }
            ],
            "name": "getUserNFTAttributes",
            "outputs": [
                {
                    "components": [
                        {
                            "internalType": "uint256",
                            "name": "tokenId",
                            "type": "uint256"
                        },
                        {
                            "internalType": "uint256",
                            "name": "createdAt",
                            "type": "uint256"
                        },
                        {
                            "components": [
                                {
                                    "internalType": "uint256",
                                    "name": "characterIndex",
                                    "type": "uint256"
                                },
                                {
                                    "internalType": "string",
                                    "name": "name",
                                    "type": "string"
                                },
                                {
                                    "internalType": "string",
                                    "name": "imageURI",
                                    "type": "string"
                                },
                                {
                                    "internalType": "uint256",
                                    "name": "healthPoints",
                                    "type": "uint256"
                                },
                                {
                                    "internalType": "uint256",
                                    "name": "maxHealthPoints",
                                    "type": "uint256"
                                },
                                {
                                    "internalType": "uint256",
                                    "name": "attackDamage",
                                    "type": "uint256"
                                },
                                {
                                    "internalType": "string",
                                    "name": "house",
                                    "type": "string"
                                },
                                {
                                    "internalType": "uint256",
                                    "name": "age",
                                    "type": "uint256"
                                }
                            ],
                            "internalType": "struct FighterAttributes",
                            "name": "attributes",
                            "type": "tuple"
                        }
                    ],
                    "internalType": "struct Fighter",
                    "name": "",
                    "type": "tuple"
                }
            ],
            "stateMutability": "view",
            "type": "function"
        },
        {
            "inputs": [
                {
                    "internalType": "address",
                    "name": "owner",
                    "type": "address"
                },
                {
                    "internalType": "address",
                    "name": "operator",
                    "type": "address"
                }
            ],
            "name": "isApprovedForAll",
            "outputs": [
                {
                    "internalType": "bool",
                    "name": "",
                    "type": "bool"
                }
            ],
            "stateMutability": "view",
            "type": "function"
        },
        {
            "inputs": [
                {
                    "internalType": "uint256",
                    "name": "_characterIndex",
                    "type": "uint256"
                }
            ],
            "name": "mintCharacterNFT",
            "outputs": [],
            "stateMutability": "nonpayable",
            "type": "function"
        },
        {
            "inputs": [],
            "name": "name",
            "outputs": [
                {
                    "internalType": "string",
                    "name": "",
                    "type": "string"
                }
            ],
            "stateMutability": "view",
            "type": "function"
        },
        {
            "inputs": [
                {
                    "internalType": "uint256",
                    "name": "",
                    "type": "uint256"
                }
            ],
            "name": "nftHolderAttributes",
            "outputs": [
                {
                    "internalType": "uint256",
                    "name": "tokenId",
                    "type": "uint256"
                },
                {
                    "internalType": "uint256",
                    "name": "createdAt",
                    "type": "uint256"
                },
                {
                    "components": [
                        {
                            "internalType": "uint256",
                            "name": "characterIndex",
                            "type": "uint256"
                        },
                        {
                            "internalType": "string",
                            "name": "name",
                            "type": "string"
                        },
                        {
                            "internalType": "string",
                            "name": "imageURI",
                            "type": "string"
                        },
                        {
                            "internalType": "uint256",
                            "name": "healthPoints",
                            "type": "uint256"
                        },
                        {
                            "internalType": "uint256",
                            "name": "maxHealthPoints",
                            "type": "uint256"
                        },
                        {
                            "internalType": "uint256",
                            "name": "attackDamage",
                            "type": "uint256"
                        },
                        {
                            "internalType": "string",
                            "name": "house",
                            "type": "string"
                        },
                        {
                            "internalType": "uint256",
                            "name": "age",
                            "type": "uint256"
                        }
                    ],
                    "internalType": "struct FighterAttributes",
                    "name": "attributes",
                    "type": "tuple"
                }
            ],
            "stateMutability": "view",
            "type": "function"
        },
        {
            "inputs": [
                {
                    "internalType": "uint256",
                    "name": "",
                    "type": "uint256"
                }
            ],
            "name": "nftHolders",
            "outputs": [
                {
                    "internalType": "address",
                    "name": "",
                    "type": "address"
                }
            ],
            "stateMutability": "view",
            "type": "function"
        },
        {
            "inputs": [
                {
                    "internalType": "uint256",
                    "name": "tokenId",
                    "type": "uint256"
                }
            ],
            "name": "ownerOf",
            "outputs": [
                {
                    "internalType": "address",
                    "name": "",
                    "type": "address"
                }
            ],
            "stateMutability": "view",
            "type": "function"
        },
        {
            "inputs": [
                {
                    "internalType": "address",
                    "name": "from",
                    "type": "address"
                },
                {
                    "internalType": "address",
                    "name": "to",
                    "type": "address"
                },
                {
                    "internalType": "uint256",
                    "name": "tokenId",
                    "type": "uint256"
                }
            ],
            "name": "safeTransferFrom",
            "outputs": [],
            "stateMutability": "nonpayable",
            "type": "function"
        },
        {
            "inputs": [
                {
                    "internalType": "address",
                    "name": "from",
                    "type": "address"
                },
                {
                    "internalType": "address",
                    "name": "to",
                    "type": "address"
                },
                {
                    "internalType": "uint256",
                    "name": "tokenId",
                    "type": "uint256"
                },
                {
                    "internalType": "bytes",
                    "name": "_data",
                    "type": "bytes"
                }
            ],
            "name": "safeTransferFrom",
            "outputs": [],
            "stateMutability": "nonpayable",
            "type": "function"
        },
        {
            "inputs": [
                {
                    "internalType": "address",
                    "name": "operator",
                    "type": "address"
                },
                {
                    "internalType": "bool",
                    "name": "approved",
                    "type": "bool"
                }
            ],
            "name": "setApprovalForAll",
            "outputs": [],
            "stateMutability": "nonpayable",
            "type": "function"
        },
        {
            "inputs": [
                {
                    "internalType": "bytes4",
                    "name": "interfaceId",
                    "type": "bytes4"
                }
            ],
            "name": "supportsInterface",
            "outputs": [
                {
                    "internalType": "bool",
                    "name": "",
                    "type": "bool"
                }
            ],
            "stateMutability": "view",
            "type": "function"
        },
        {
            "inputs": [],
            "name": "symbol",
            "outputs": [
                {
                    "internalType": "string",
                    "name": "",
                    "type": "string"
                }
            ],
            "stateMutability": "view",
            "type": "function"
        },
        {
            "inputs": [
                {
                    "internalType": "uint256",
                    "name": "_tokenId",
                    "type": "uint256"
                }
            ],
            "name": "tokenURI",
            "outputs": [
                {
                    "internalType": "string",
                    "name": "",
                    "type": "string"
                }
            ],
            "stateMutability": "view",
            "type": "function"
        },
        {
            "inputs": [
                {
                    "internalType": "address",
                    "name": "from",
                    "type": "address"
                },
                {
                    "internalType": "address",
                    "name": "to",
                    "type": "address"
                },
                {
                    "internalType": "uint256",
                    "name": "tokenId",
                    "type": "uint256"
                }
            ],
            "name": "transferFrom",
            "outputs": [],
            "stateMutability": "nonpayable",
            "type": "function"
        }
    ],
    "bytecode": "0x6080604052604051620054523803806200545283398181016040528101906200002991906200067c565b6040518060400160405280600c81526020017f49636520616e64204669726500000000000000000000000000000000000000008152506040518060400160405280600381526020017f49414600000000000000000000000000000000000000000000000000000000008152508160009080519060200190620000ad929190620003e4565b508060019080519060200190620000c6929190620003e4565b505050620000e06007620003ce60201b62001f8a1760201c565b60005b8651811015620003c15760066040518061010001604052808381526020018984815181106200013b577f4e487b7100000000000000000000000000000000000000000000000000000000600052603260045260246000fd5b6020026020010151815260200188848151811062000182577f4e487b7100000000000000000000000000000000000000000000000000000000600052603260045260246000fd5b60200260200101518152602001878481518110620001c9577f4e487b7100000000000000000000000000000000000000000000000000000000600052603260045260246000fd5b6020026020010151815260200187848151811062000210577f4e487b7100000000000000000000000000000000000000000000000000000000600052603260045260246000fd5b6020026020010151815260200186848151811062000257577f4e487b7100000000000000000000000000000000000000000000000000000000600052603260045260246000fd5b602002602001015181526020018584815181106200029e577f4e487b7100000000000000000000000000000000000000000000000000000000600052603260045260246000fd5b60200260200101518152602001848481518110620002e5577f4e487b7100000000000000000000000000000000000000000000000000000000600052603260045260246000fd5b6020026020010151815250908060018154018082558091505060019003906000526020600020906008020160009091909190915060008201518160000155602082015181600101908051906020019062000341929190620003e4565b50604082015181600201908051906020019062000360929190620003e4565b50606082015181600301556080820151816004015560a0820151816005015560c08201518160060190805190602001906200039d929190620003e4565b5060e082015181600701555050600181620003b9919062000865565b9050620000e3565b5050505050505062000a26565b6001816000016000828254019250508190555050565b828054620003f29062000902565b90600052602060002090601f01602090048101928262000416576000855562000462565b82601f106200043157805160ff191683800117855562000462565b8280016001018555821562000462579182015b828111156200046157825182559160200191906001019062000444565b5b50905062000471919062000475565b5090565b5b808211156200049057600081600090555060010162000476565b5090565b6000620004ab620004a584620007d1565b620007a8565b90508083825260208201905082856020860282011115620004cb57600080fd5b60005b858110156200051a57815167ffffffffffffffff811115620004ef57600080fd5b808601620004fe898262000638565b85526020850194506020840193505050600181019050620004ce565b5050509392505050565b60006200053b620005358462000800565b620007a8565b905080838252602082019050828560208602820111156200055b57600080fd5b60005b858110156200058f578162000574888262000665565b8452602084019350602083019250506001810190506200055e565b5050509392505050565b6000620005b0620005aa846200082f565b620007a8565b905082815260208101848484011115620005c957600080fd5b620005d6848285620008cc565b509392505050565b600082601f830112620005f057600080fd5b81516200060284826020860162000494565b91505092915050565b600082601f8301126200061d57600080fd5b81516200062f84826020860162000524565b91505092915050565b600082601f8301126200064a57600080fd5b81516200065c84826020860162000599565b91505092915050565b600081519050620006768162000a0c565b92915050565b60008060008060008060c087890312156200069657600080fd5b600087015167ffffffffffffffff811115620006b157600080fd5b620006bf89828a01620005de565b965050602087015167ffffffffffffffff811115620006dd57600080fd5b620006eb89828a01620005de565b955050604087015167ffffffffffffffff8111156200070957600080fd5b6200071789828a016200060b565b945050606087015167ffffffffffffffff8111156200073557600080fd5b6200074389828a016200060b565b935050608087015167ffffffffffffffff8111156200076157600080fd5b6200076f89828a01620005de565b92505060a087015167ffffffffffffffff8111156200078d57600080fd5b6200079b89828a016200060b565b9150509295509295509295565b6000620007b4620007c7565b9050620007c2828262000938565b919050565b6000604051905090565b600067ffffffffffffffff821115620007ef57620007ee620009cc565b5b602082029050602081019050919050565b600067ffffffffffffffff8211156200081e576200081d620009cc565b5b602082029050602081019050919050565b600067ffffffffffffffff8211156200084d576200084c620009cc565b5b6200085882620009fb565b9050602081019050919050565b60006200087282620008c2565b91506200087f83620008c2565b9250827fffffffffffffffffffffffffffffffffffffffffffffffffffffffffffffffff03821115620008b757620008b66200096e565b5b828201905092915050565b6000819050919050565b60005b83811015620008ec578082015181840152602081019050620008cf565b83811115620008fc576000848401525b50505050565b600060028204905060018216806200091b57607f821691505b602082108114156200093257620009316200099d565b5b50919050565b6200094382620009fb565b810181811067ffffffffffffffff82111715620009655762000964620009cc565b5b80604052505050565b7f4e487b7100000000000000000000000000000000000000000000000000000000600052601160045260246000fd5b7f4e487b7100000000000000000000000000000000000000000000000000000000600052602260045260246000fd5b7f4e487b7100000000000000000000000000000000000000000000000000000000600052604160045260246000fd5b6000601f19601f8301169050919050565b62000a1781620008c2565b811462000a2357600080fd5b50565b614a1c8062000a366000396000f3fe608060405234801561001057600080fd5b50600436106101375760003560e01c80637918d00a116100b8578063b953084e1161007c578063b953084e14610360578063c87b56dd1461037e578063e985e9c5146103ae578063f7a0a824146103de578063f8b81ef714610415578063fd32dd9e1461043157610137565b80637918d00a146102bc57806395d89b41146102d857806398da4c95146102f6578063a22cb46514610328578063b88d4fde1461034457610137565b80631cf5ee1c116100ff5780631cf5ee1c1461020657806323b872dd1461022457806342842e0e146102405780636352211e1461025c57806370a082311461028c57610137565b806301ffc9a71461013c57806306fdde031461016c578063081812fc1461018a578063095ea7b3146101ba5780631c49b574146101d6575b600080fd5b6101566004803603810190610151919061315c565b610461565b6040516101639190613ae7565b60405180910390f35b610174610543565b6040516101819190613b02565b60405180910390f35b6101a4600480360381019061019f91906131ae565b6105d5565b6040516101b19190613a05565b60405180910390f35b6101d460048036038101906101cf9190613120565b61065a565b005b6101f060048036038101906101eb91906131ae565b610772565b6040516101fd9190613d24565b60405180910390f35b61020e610a2a565b60405161021b9190613ac5565b60405180910390f35b61023e6004803603810190610239919061301a565b610abf565b005b61025a6004803603810190610255919061301a565b610b1f565b005b610276600480360381019061027191906131ae565b610b3f565b6040516102839190613a05565b60405180910390f35b6102a660048036038101906102a19190612fb5565b610bf1565b6040516102b39190613d46565b60405180910390f35b6102d660048036038101906102d191906131d7565b610ca9565b005b6102e0610ea0565b6040516102ed9190613b02565b60405180910390f35b610310600480360381019061030b91906131ae565b610f32565b60405161031f93929190613e1d565b60405180910390f35b610342600480360381019061033d91906130e4565b61114f565b005b61035e60048036038101906103599190613069565b611165565b005b6103686111c7565b6040516103759190613aa3565b60405180910390f35b610398600480360381019061039391906131ae565b61140f565b6040516103a59190613b02565b60405180910390f35b6103c860048036038101906103c39190612fde565b611703565b6040516103d59190613ae7565b60405180910390f35b6103f860048036038101906103f391906131ae565b611797565b60405161040c989796959493929190613d61565b60405180910390f35b61042f600480360381019061042a91906131ae565b611987565b005b61044b600480360381019061044691906131ae565b611f57565b6040516104589190613a05565b60405180910390f35b60007f80ac58cd000000000000000000000000000000000000000000000000000000007bffffffffffffffffffffffffffffffffffffffffffffffffffffffff1916827bffffffffffffffffffffffffffffffffffffffffffffffffffffffff1916148061052c57507f5b5e139f000000000000000000000000000000000000000000000000000000007bffffffffffffffffffffffffffffffffffffffffffffffffffffffff1916827bffffffffffffffffffffffffffffffffffffffffffffffffffffffff1916145b8061053c575061053b82611fa0565b5b9050919050565b60606000805461055290614142565b80601f016020809104026020016040519081016040528092919081815260200182805461057e90614142565b80156105cb5780601f106105a0576101008083540402835291602001916105cb565b820191906000526020600020905b8154815290600101906020018083116105ae57829003601f168201915b5050505050905090565b60006105e08261200a565b61061f576040517f08c379a000000000000000000000000000000000000000000000000000000000815260040161061690613c84565b60405180910390fd5b6004600083815260200190815260200160002060009054906101000a900473ffffffffffffffffffffffffffffffffffffffff169050919050565b600061066582610b3f565b90508073ffffffffffffffffffffffffffffffffffffffff168373ffffffffffffffffffffffffffffffffffffffff1614156106d6576040517f08c379a00000000000000000000000000000000000000000000000000000000081526004016106cd90613cc4565b60405180910390fd5b8073ffffffffffffffffffffffffffffffffffffffff166106f5612076565b73ffffffffffffffffffffffffffffffffffffffff16148061072457506107238161071e612076565b611703565b5b610763576040517f08c379a000000000000000000000000000000000000000000000000000000000815260040161075a90613c04565b60405180910390fd5b61076d838361207e565b505050565b61077a612dd5565b610782612dd5565b600073ffffffffffffffffffffffffffffffffffffffff166009600085815260200190815260200160002060009054906101000a900473ffffffffffffffffffffffffffffffffffffffff1673ffffffffffffffffffffffffffffffffffffffff1614610a205760086000848152602001908152602001600020604051806060016040529081600082015481526020016001820154815260200160028201604051806101000160405290816000820154815260200160018201805461084690614142565b80601f016020809104026020016040519081016040528092919081815260200182805461087290614142565b80156108bf5780601f10610894576101008083540402835291602001916108bf565b820191906000526020600020905b8154815290600101906020018083116108a257829003601f168201915b505050505081526020016002820180546108d890614142565b80601f016020809104026020016040519081016040528092919081815260200182805461090490614142565b80156109515780601f1061092657610100808354040283529160200191610951565b820191906000526020600020905b81548152906001019060200180831161093457829003601f168201915b5050505050815260200160038201548152602001600482015481526020016005820154815260200160068201805461098890614142565b80601f01602080910402602001604051908101604052809291908181526020018280546109b490614142565b8015610a015780601f106109d657610100808354040283529160200191610a01565b820191906000526020600020905b8154815290600101906020018083116109e457829003601f168201915b5050505050815260200160078201548152505081525050915050610a25565b809150505b919050565b6060600a60003373ffffffffffffffffffffffffffffffffffffffff1673ffffffffffffffffffffffffffffffffffffffff168152602001908152602001600020805480602002602001604051908101604052809291908181526020018280548015610ab557602002820191906000526020600020905b815481526020019060010190808311610aa1575b5050505050905090565b610ad0610aca612076565b82612137565b610b0f576040517f08c379a0000000000000000000000000000000000000000000000000000000008152600401610b0690613d04565b60405180910390fd5b610b1a838383612215565b505050565b610b3a83838360405180602001604052806000815250611165565b505050565b6000806002600084815260200190815260200160002060009054906101000a900473ffffffffffffffffffffffffffffffffffffffff169050600073ffffffffffffffffffffffffffffffffffffffff168173ffffffffffffffffffffffffffffffffffffffff161415610be8576040517f08c379a0000000000000000000000000000000000000000000000000000000008152600401610bdf90613c44565b60405180910390fd5b80915050919050565b60008073ffffffffffffffffffffffffffffffffffffffff168273ffffffffffffffffffffffffffffffffffffffff161415610c62576040517f08c379a0000000000000000000000000000000000000000000000000000000008152600401610c5990613c24565b60405180910390fd5b600360008373ffffffffffffffffffffffffffffffffffffffff1673ffffffffffffffffffffffffffffffffffffffff168152602001908152602001600020549050919050565b600060086000848152602001908152602001600020905060006008600084815260200190815260200160002090503373ffffffffffffffffffffffffffffffffffffffff166009600086815260200190815260200160002060009054906101000a900473ffffffffffffffffffffffffffffffffffffffff1673ffffffffffffffffffffffffffffffffffffffff1614610d78576040517f08c379a0000000000000000000000000000000000000000000000000000000008152600401610d6f90613ca4565b60405180910390fd5b6000826002016003015411610dc2576040517f08c379a0000000000000000000000000000000000000000000000000000000008152600401610db990613ce4565b60405180910390fd5b6000816002016003015411610e0c576040517f08c379a0000000000000000000000000000000000000000000000000000000008152600401610e0390613be4565b60405180910390fd5b816002016005015481600201600301541015610e345760008160020160030181905550610e5a565b81600201600501548160020160030154610e4e9190614058565b81600201600301819055505b7f838ab28464562786a6c4ab2311964b82fa60bd9b14aa7e856af1f3f18d41a414838260020160030154604051610e92929190613df4565b60405180910390a150505050565b606060018054610eaf90614142565b80601f0160208091040260200160405190810160405280929190818152602001828054610edb90614142565b8015610f285780601f10610efd57610100808354040283529160200191610f28565b820191906000526020600020905b815481529060010190602001808311610f0b57829003601f168201915b5050505050905090565b6008602052806000526040600020600091509050806000015490806001015490806002016040518061010001604052908160008201548152602001600182018054610f7c90614142565b80601f0160208091040260200160405190810160405280929190818152602001828054610fa890614142565b8015610ff55780601f10610fca57610100808354040283529160200191610ff5565b820191906000526020600020905b815481529060010190602001808311610fd857829003601f168201915b5050505050815260200160028201805461100e90614142565b80601f016020809104026020016040519081016040528092919081815260200182805461103a90614142565b80156110875780601f1061105c57610100808354040283529160200191611087565b820191906000526020600020905b81548152906001019060200180831161106a57829003601f168201915b505050505081526020016003820154815260200160048201548152602001600582015481526020016006820180546110be90614142565b80601f01602080910402602001604051908101604052809291908181526020018280546110ea90614142565b80156111375780601f1061110c57610100808354040283529160200191611137565b820191906000526020600020905b81548152906001019060200180831161111a57829003601f168201915b50505050508152602001600782015481525050905083565b61116161115a612076565b838361247c565b5050565b611176611170612076565b83612137565b6111b5576040517f08c379a00000000000000000000000000000000000000000000000000000000081526004016111ac90613d04565b60405180910390fd5b6111c1848484846125e9565b50505050565b60606006805480602002602001604051908101604052809291908181526020016000905b828210156114065783829060005260206000209060080201604051806101000160405290816000820154815260200160018201805461122990614142565b80601f016020809104026020016040519081016040528092919081815260200182805461125590614142565b80156112a25780601f10611277576101008083540402835291602001916112a2565b820191906000526020600020905b81548152906001019060200180831161128557829003601f168201915b505050505081526020016002820180546112bb90614142565b80601f01602080910402602001604051908101604052809291908181526020018280546112e790614142565b80156113345780601f1061130957610100808354040283529160200191611334565b820191906000526020600020905b81548152906001019060200180831161131757829003601f168201915b5050505050815260200160038201548152602001600482015481526020016005820154815260200160068201805461136b90614142565b80601f016020809104026020016040519081016040528092919081815260200182805461139790614142565b80156113e45780601f106113b9576101008083540402835291602001916113e4565b820191906000526020600020905b8154815290600101906020018083116113c757829003601f168201915b50505050508152602001600782015481525050815260200190600101906111eb565b50505050905090565b6060600060086000848152602001908152602001600020604051806060016040529081600082015481526020016001820154815260200160028201604051806101000160405290816000820154815260200160018201805461147090614142565b80601f016020809104026020016040519081016040528092919081815260200182805461149c90614142565b80156114e95780601f106114be576101008083540402835291602001916114e9565b820191906000526020600020905b8154815290600101906020018083116114cc57829003601f168201915b5050505050815260200160028201805461150290614142565b80601f016020809104026020016040519081016040528092919081815260200182805461152e90614142565b801561157b5780601f106115505761010080835404028352916020019161157b565b820191906000526020600020905b81548152906001019060200180831161155e57829003601f168201915b505050505081526020016003820154815260200160048201548152602001600582015481526020016006820180546115b290614142565b80601f01602080910402602001604051908101604052809291908181526020018280546115de90614142565b801561162b5780601f106116005761010080835404028352916020019161162b565b820191906000526020600020905b81548152906001019060200180831161160e57829003601f168201915b505050505081526020016007820154815250508152505090506000611657826040015160600151612645565b9050600061166c836040015160800151612645565b90506000611681846040015160a00151612645565b905060006116cf85604001516020015161169a89612645565b8760400151604001518787876040516020016116bb9695949392919061393e565b6040516020818303038152906040526127f2565b90506000816040516020016116e491906139e3565b6040516020818303038152906040529050809650505050505050919050565b6000600560008473ffffffffffffffffffffffffffffffffffffffff1673ffffffffffffffffffffffffffffffffffffffff16815260200190815260200160002060008373ffffffffffffffffffffffffffffffffffffffff1673ffffffffffffffffffffffffffffffffffffffff16815260200190815260200160002060009054906101000a900460ff16905092915050565b600681815481106117a757600080fd5b90600052602060002090600802016000915090508060000154908060010180546117d090614142565b80601f01602080910402602001604051908101604052809291908181526020018280546117fc90614142565b80156118495780601f1061181e57610100808354040283529160200191611849565b820191906000526020600020905b81548152906001019060200180831161182c57829003601f168201915b50505050509080600201805461185e90614142565b80601f016020809104026020016040519081016040528092919081815260200182805461188a90614142565b80156118d75780601f106118ac576101008083540402835291602001916118d7565b820191906000526020600020905b8154815290600101906020018083116118ba57829003601f168201915b5050505050908060030154908060040154908060050154908060060180546118fe90614142565b80601f016020809104026020016040519081016040528092919081815260200182805461192a90614142565b80156119775780601f1061194c57610100808354040283529160200191611977565b820191906000526020600020905b81548152906001019060200180831161195a57829003601f168201915b5050505050908060070154905088565b600061199360076129b0565b905061199f33826129be565b604051806060016040528082815260200142815260200160405180610100016040528085815260200160068681548110611a02577f4e487b7100000000000000000000000000000000000000000000000000000000600052603260045260246000fd5b90600052602060002090600802016001018054611a1e90614142565b80601f0160208091040260200160405190810160405280929190818152602001828054611a4a90614142565b8015611a975780601f10611a6c57610100808354040283529160200191611a97565b820191906000526020600020905b815481529060010190602001808311611a7a57829003601f168201915b5050505050815260200160068681548110611adb577f4e487b7100000000000000000000000000000000000000000000000000000000600052603260045260246000fd5b90600052602060002090600802016002018054611af790614142565b80601f0160208091040260200160405190810160405280929190818152602001828054611b2390614142565b8015611b705780601f10611b4557610100808354040283529160200191611b70565b820191906000526020600020905b815481529060010190602001808311611b5357829003601f168201915b5050505050815260200160068681548110611bb4577f4e487b7100000000000000000000000000000000000000000000000000000000600052603260045260246000fd5b906000526020600020906008020160030154815260200160068681548110611c05577f4e487b7100000000000000000000000000000000000000000000000000000000600052603260045260246000fd5b906000526020600020906008020160040154815260200160068681548110611c56577f4e487b7100000000000000000000000000000000000000000000000000000000600052603260045260246000fd5b906000526020600020906008020160050154815260200160068681548110611ca7577f4e487b7100000000000000000000000000000000000000000000000000000000600052603260045260246000fd5b90600052602060002090600802016006018054611cc390614142565b80601f0160208091040260200160405190810160405280929190818152602001828054611cef90614142565b8015611d3c5780601f10611d1157610100808354040283529160200191611d3c565b820191906000526020600020905b815481529060010190602001808311611d1f57829003601f168201915b5050505050815260200160068681548110611d80577f4e487b7100000000000000000000000000000000000000000000000000000000600052603260045260246000fd5b906000526020600020906008020160070154815250815250600860008381526020019081526020016000206000820151816000015560208201518160010155604082015181600201600082015181600001556020820151816001019080519060200190611dee929190612dfc565b506040820151816002019080519060200190611e0b929190612dfc565b50606082015181600301556080820151816004015560a0820151816005015560c0820151816006019080519060200190611e46929190612dfc565b5060e082015181600701555050905050336009600083815260200190815260200160002060006101000a81548173ffffffffffffffffffffffffffffffffffffffff021916908373ffffffffffffffffffffffffffffffffffffffff160217905550600a60003373ffffffffffffffffffffffffffffffffffffffff1673ffffffffffffffffffffffffffffffffffffffff1681526020019081526020016000208190806001815401808255809150506001900390600052602060002001600090919091909150557f4bc303fd457a97b4691b9af582ce71868a3d258638c8d4f8c60988a0f0bfb8cd338284604051611f4193929190613a6c565b60405180910390a1611f536007611f8a565b5050565b60096020528060005260406000206000915054906101000a900473ffffffffffffffffffffffffffffffffffffffff1681565b6001816000016000828254019250508190555050565b60007f01ffc9a7000000000000000000000000000000000000000000000000000000007bffffffffffffffffffffffffffffffffffffffffffffffffffffffff1916827bffffffffffffffffffffffffffffffffffffffffffffffffffffffff1916149050919050565b60008073ffffffffffffffffffffffffffffffffffffffff166002600084815260200190815260200160002060009054906101000a900473ffffffffffffffffffffffffffffffffffffffff1673ffffffffffffffffffffffffffffffffffffffff1614159050919050565b600033905090565b816004600083815260200190815260200160002060006101000a81548173ffffffffffffffffffffffffffffffffffffffff021916908373ffffffffffffffffffffffffffffffffffffffff160217905550808273ffffffffffffffffffffffffffffffffffffffff166120f183610b3f565b73ffffffffffffffffffffffffffffffffffffffff167f8c5be1e5ebec7d5bd14f71427d1e84f3dd0314c0f7b2291e5b200ac8c7c3b92560405160405180910390a45050565b60006121428261200a565b612181576040517f08c379a000000000000000000000000000000000000000000000000000000000815260040161217890613bc4565b60405180910390fd5b600061218c83610b3f565b90508073ffffffffffffffffffffffffffffffffffffffff168473ffffffffffffffffffffffffffffffffffffffff1614806121ce57506121cd8185611703565b5b8061220c57508373ffffffffffffffffffffffffffffffffffffffff166121f4846105d5565b73ffffffffffffffffffffffffffffffffffffffff16145b91505092915050565b8273ffffffffffffffffffffffffffffffffffffffff1661223582610b3f565b73ffffffffffffffffffffffffffffffffffffffff161461228b576040517f08c379a000000000000000000000000000000000000000000000000000000000815260040161228290613b44565b60405180910390fd5b600073ffffffffffffffffffffffffffffffffffffffff168273ffffffffffffffffffffffffffffffffffffffff1614156122fb576040517f08c379a00000000000000000000000000000000000000000000000000000000081526004016122f290613b84565b60405180910390fd5b6123068383836129dc565b61231160008261207e565b6001600360008573ffffffffffffffffffffffffffffffffffffffff1673ffffffffffffffffffffffffffffffffffffffff16815260200190815260200160002060008282546123619190614058565b925050819055506001600360008473ffffffffffffffffffffffffffffffffffffffff1673ffffffffffffffffffffffffffffffffffffffff16815260200190815260200160002060008282546123b89190613f77565b92505081905550816002600083815260200190815260200160002060006101000a81548173ffffffffffffffffffffffffffffffffffffffff021916908373ffffffffffffffffffffffffffffffffffffffff160217905550808273ffffffffffffffffffffffffffffffffffffffff168473ffffffffffffffffffffffffffffffffffffffff167fddf252ad1be2c89b69c2b068fc378daa952ba7f163c4a11628f55a4df523b3ef60405160405180910390a46124778383836129e1565b505050565b8173ffffffffffffffffffffffffffffffffffffffff168373ffffffffffffffffffffffffffffffffffffffff1614156124eb576040517f08c379a00000000000000000000000000000000000000000000000000000000081526004016124e290613ba4565b60405180910390fd5b80600560008573ffffffffffffffffffffffffffffffffffffffff1673ffffffffffffffffffffffffffffffffffffffff16815260200190815260200160002060008473ffffffffffffffffffffffffffffffffffffffff1673ffffffffffffffffffffffffffffffffffffffff16815260200190815260200160002060006101000a81548160ff0219169083151502179055508173ffffffffffffffffffffffffffffffffffffffff168373ffffffffffffffffffffffffffffffffffffffff167f17307eab39ab6107e8899845ad3d59bd9653f200f220920489ca2b5937696c31836040516125dc9190613ae7565b60405180910390a3505050565b6125f4848484612215565b612600848484846129e6565b61263f576040517f08c379a000000000000000000000000000000000000000000000000000000000815260040161263690613b24565b60405180910390fd5b50505050565b6060600082141561268d576040518060400160405280600181526020017f300000000000000000000000000000000000000000000000000000000000000081525090506127ed565b600082905060005b600082146126bf5780806126a8906141a5565b915050600a826126b89190613fcd565b9150612695565b60008167ffffffffffffffff811115612701577f4e487b7100000000000000000000000000000000000000000000000000000000600052604160045260246000fd5b6040519080825280601f01601f1916602001820160405280156127335781602001600182028036833780820191505090505b5090505b600085146127e65760018261274c9190614058565b9150600a8561275b91906141ee565b60306127679190613f77565b60f81b8183815181106127a3577f4e487b7100000000000000000000000000000000000000000000000000000000600052603260045260246000fd5b60200101907effffffffffffffffffffffffffffffffffffffffffffffffffffffffffffff1916908160001a905350600a856127df9190613fcd565b9450612737565b8093505050505b919050565b6060600082519050600081141561281b57604051806020016040528060008152509150506129ab565b6000600360028361282c9190613f77565b6128369190613fcd565b60046128429190613ffe565b905060006020826128539190613f77565b67ffffffffffffffff811115612892577f4e487b7100000000000000000000000000000000000000000000000000000000600052604160045260246000fd5b6040519080825280601f01601f1916602001820160405280156128c45781602001600182028036833780820191505090505b50905060006040518060600160405280604081526020016149a7604091399050600181016020830160005b868110156129685760038101905062ffffff818a015116603f8160121c168401518060081b905060ff603f83600c1c1686015116810190508060081b905060ff603f8360061c1686015116810190508060081b905060ff603f831686015116810190508060e01b905080845260048401935050506128ef565b50600386066001811461298257600281146129925761299d565b613d3d60f01b600283035261299d565b603d60f81b60018303525b508484525050819450505050505b919050565b600081600001549050919050565b6129d8828260405180602001604052806000815250612b7d565b5050565b505050565b505050565b6000612a078473ffffffffffffffffffffffffffffffffffffffff16612bd8565b15612b70578373ffffffffffffffffffffffffffffffffffffffff1663150b7a02612a30612076565b8786866040518563ffffffff1660e01b8152600401612a529493929190613a20565b602060405180830381600087803b158015612a6c57600080fd5b505af1925050508015612a9d57506040513d601f19601f82011682018060405250810190612a9a9190613185565b60015b612b20573d8060008114612acd576040519150601f19603f3d011682016040523d82523d6000602084013e612ad2565b606091505b50600081511415612b18576040517f08c379a0000000000000000000000000000000000000000000000000000000008152600401612b0f90613b24565b60405180910390fd5b805181602001fd5b63150b7a0260e01b7bffffffffffffffffffffffffffffffffffffffffffffffffffffffff1916817bffffffffffffffffffffffffffffffffffffffffffffffffffffffff191614915050612b75565b600190505b949350505050565b612b878383612bfb565b612b9460008484846129e6565b612bd3576040517f08c379a0000000000000000000000000000000000000000000000000000000008152600401612bca90613b24565b60405180910390fd5b505050565b6000808273ffffffffffffffffffffffffffffffffffffffff163b119050919050565b600073ffffffffffffffffffffffffffffffffffffffff168273ffffffffffffffffffffffffffffffffffffffff161415612c6b576040517f08c379a0000000000000000000000000000000000000000000000000000000008152600401612c6290613c64565b60405180910390fd5b612c748161200a565b15612cb4576040517f08c379a0000000000000000000000000000000000000000000000000000000008152600401612cab90613b64565b60405180910390fd5b612cc0600083836129dc565b6001600360008473ffffffffffffffffffffffffffffffffffffffff1673ffffffffffffffffffffffffffffffffffffffff1681526020019081526020016000206000828254612d109190613f77565b92505081905550816002600083815260200190815260200160002060006101000a81548173ffffffffffffffffffffffffffffffffffffffff021916908373ffffffffffffffffffffffffffffffffffffffff160217905550808273ffffffffffffffffffffffffffffffffffffffff16600073ffffffffffffffffffffffffffffffffffffffff167fddf252ad1be2c89b69c2b068fc378daa952ba7f163c4a11628f55a4df523b3ef60405160405180910390a4612dd1600083836129e1565b5050565b60405180606001604052806000815260200160008152602001612df6612e82565b81525090565b828054612e0890614142565b90600052602060002090601f016020900481019282612e2a5760008555612e71565b82601f10612e4357805160ff1916838001178555612e71565b82800160010185558215612e71579182015b82811115612e70578251825591602001919060010190612e55565b5b509050612e7e9190612ec7565b5090565b60405180610100016040528060008152602001606081526020016060815260200160008152602001600081526020016000815260200160608152602001600081525090565b5b80821115612ee0576000816000905550600101612ec8565b5090565b6000612ef7612ef284613e80565b613e5b565b905082815260208101848484011115612f0f57600080fd5b612f1a848285614100565b509392505050565b600081359050612f318161494a565b92915050565b600081359050612f4681614961565b92915050565b600081359050612f5b81614978565b92915050565b600081519050612f7081614978565b92915050565b600082601f830112612f8757600080fd5b8135612f97848260208601612ee4565b91505092915050565b600081359050612faf8161498f565b92915050565b600060208284031215612fc757600080fd5b6000612fd584828501612f22565b91505092915050565b60008060408385031215612ff157600080fd5b6000612fff85828601612f22565b925050602061301085828601612f22565b9150509250929050565b60008060006060848603121561302f57600080fd5b600061303d86828701612f22565b935050602061304e86828701612f22565b925050604061305f86828701612fa0565b9150509250925092565b6000806000806080858703121561307f57600080fd5b600061308d87828801612f22565b945050602061309e87828801612f22565b93505060406130af87828801612fa0565b925050606085013567ffffffffffffffff8111156130cc57600080fd5b6130d887828801612f76565b91505092959194509250565b600080604083850312156130f757600080fd5b600061310585828601612f22565b925050602061311685828601612f37565b9150509250929050565b6000806040838503121561313357600080fd5b600061314185828601612f22565b925050602061315285828601612fa0565b9150509250929050565b60006020828403121561316e57600080fd5b600061317c84828501612f4c565b91505092915050565b60006020828403121561319757600080fd5b60006131a584828501612f61565b91505092915050565b6000602082840312156131c057600080fd5b60006131ce84828501612fa0565b91505092915050565b600080604083850312156131ea57600080fd5b60006131f885828601612fa0565b925050602061320985828601612fa0565b9150509250929050565b600061321f8383613754565b905092915050565b60006132338383613920565b60208301905092915050565b6132488161408c565b82525050565b600061325982613ed1565b6132638185613f17565b93508360208202850161327585613eb1565b8060005b858110156132b157848403895281516132928582613213565b945061329d83613efd565b925060208a01995050600181019050613279565b50829750879550505050505092915050565b60006132ce82613edc565b6132d88185613f28565b93506132e383613ec1565b8060005b838110156133145781516132fb8882613227565b975061330683613f0a565b9250506001810190506132e7565b5085935050505092915050565b61332a8161409e565b82525050565b600061333b82613ee7565b6133458185613f39565b935061335581856020860161410f565b61335e816142db565b840191505092915050565b600061337482613ef2565b61337e8185613f4a565b935061338e81856020860161410f565b613397816142db565b840191505092915050565b60006133ad82613ef2565b6133b78185613f5b565b93506133c781856020860161410f565b6133d0816142db565b840191505092915050565b60006133e682613ef2565b6133f08185613f6c565b935061340081856020860161410f565b80840191505092915050565b6000613419600b83613f6c565b9150613424826142ec565b600b82019050919050565b600061343c603283613f5b565b915061344782614315565b604082019050919050565b600061345f602583613f5b565b915061346a82614364565b604082019050919050565b6000613482601c83613f5b565b915061348d826143b3565b602082019050919050565b60006134a5600e83613f6c565b91506134b0826143dc565b600e82019050919050565b60006134c8602483613f5b565b91506134d382614405565b604082019050919050565b60006134eb601983613f5b565b91506134f682614454565b602082019050919050565b600061350e602c83613f5b565b91506135198261447d565b604082019050919050565b6000613531602b83613f5b565b915061353c826144cc565b604082019050919050565b6000613554603883613f5b565b915061355f8261451b565b604082019050919050565b6000613577602a83613f5b565b91506135828261456a565b604082019050919050565b600061359a602983613f5b565b91506135a5826145b9565b604082019050919050565b60006135bd606283613f6c565b91506135c882614608565b606282019050919050565b60006135e0600483613f6c565b91506135eb826146a3565b600482019050919050565b6000613603602083613f5b565b915061360e826146cc565b602082019050919050565b6000613626602c83613f5b565b9150613631826146f5565b604082019050919050565b6000613649600a83613f6c565b915061365482614744565b600a82019050919050565b600061366c601c83613f5b565b91506136778261476d565b602082019050919050565b600061368f602183613f5b565b915061369a82614796565b604082019050919050565b60006136b2601d83613f6c565b91506136bd826147e5565b601d82019050919050565b60006136d5602b83613f5b565b91506136e08261480e565b604082019050919050565b60006136f8603183613f5b565b91506137038261485d565b604082019050919050565b600061371b603d83613f6c565b9150613726826148ac565b603d82019050919050565b600061373e602d83613f6c565b9150613749826148fb565b602d82019050919050565b60006101008301600083015161376d6000860182613920565b50602083015184820360208601526137858282613369565b9150506040830151848203604086015261379f8282613369565b91505060608301516137b46060860182613920565b5060808301516137c76080860182613920565b5060a08301516137da60a0860182613920565b5060c083015184820360c08601526137f28282613369565b91505060e083015161380760e0860182613920565b508091505092915050565b60006101008301600083015161382b6000860182613920565b50602083015184820360208601526138438282613369565b9150506040830151848203604086015261385d8282613369565b91505060608301516138726060860182613920565b5060808301516138856080860182613920565b5060a083015161389860a0860182613920565b5060c083015184820360c08601526138b08282613369565b91505060e08301516138c560e0860182613920565b508091505092915050565b60006060830160008301516138e86000860182613920565b5060208301516138fb6020860182613920565b50604083015184820360408601526139138282613754565b9150508091505092915050565b613929816140f6565b82525050565b613938816140f6565b82525050565b60006139498261363c565b915061395582896133db565b91506139608261340c565b915061396c82886133db565b9150613977826135b0565b915061398382876133db565b915061398e8261370e565b915061399a82866133db565b91506139a582613498565b91506139b182856133db565b91506139bc82613731565b91506139c882846133db565b91506139d3826135d3565b9150819050979650505050505050565b60006139ee826136a5565b91506139fa82846133db565b915081905092915050565b6000602082019050613a1a600083018461323f565b92915050565b6000608082019050613a35600083018761323f565b613a42602083018661323f565b613a4f604083018561392f565b8181036060830152613a618184613330565b905095945050505050565b6000606082019050613a81600083018661323f565b613a8e602083018561392f565b613a9b604083018461392f565b949350505050565b60006020820190508181036000830152613abd818461324e565b905092915050565b60006020820190508181036000830152613adf81846132c3565b905092915050565b6000602082019050613afc6000830184613321565b92915050565b60006020820190508181036000830152613b1c81846133a2565b905092915050565b60006020820190508181036000830152613b3d8161342f565b9050919050565b60006020820190508181036000830152613b5d81613452565b9050919050565b60006020820190508181036000830152613b7d81613475565b9050919050565b60006020820190508181036000830152613b9d816134bb565b9050919050565b60006020820190508181036000830152613bbd816134de565b9050919050565b60006020820190508181036000830152613bdd81613501565b9050919050565b60006020820190508181036000830152613bfd81613524565b9050919050565b60006020820190508181036000830152613c1d81613547565b9050919050565b60006020820190508181036000830152613c3d8161356a565b9050919050565b60006020820190508181036000830152613c5d8161358d565b9050919050565b60006020820190508181036000830152613c7d816135f6565b9050919050565b60006020820190508181036000830152613c9d81613619565b9050919050565b60006020820190508181036000830152613cbd8161365f565b9050919050565b60006020820190508181036000830152613cdd81613682565b9050919050565b60006020820190508181036000830152613cfd816136c8565b9050919050565b60006020820190508181036000830152613d1d816136eb565b9050919050565b60006020820190508181036000830152613d3e81846138d0565b905092915050565b6000602082019050613d5b600083018461392f565b92915050565b600061010082019050613d77600083018b61392f565b8181036020830152613d89818a6133a2565b90508181036040830152613d9d81896133a2565b9050613dac606083018861392f565b613db9608083018761392f565b613dc660a083018661392f565b81810360c0830152613dd881856133a2565b9050613de760e083018461392f565b9998505050505050505050565b6000604082019050613e09600083018561392f565b613e16602083018461392f565b9392505050565b6000606082019050613e32600083018661392f565b613e3f602083018561392f565b8181036040830152613e518184613812565b9050949350505050565b6000613e65613e76565b9050613e718282614174565b919050565b6000604051905090565b600067ffffffffffffffff821115613e9b57613e9a6142ac565b5b613ea4826142db565b9050602081019050919050565b6000819050602082019050919050565b6000819050602082019050919050565b600081519050919050565b600081519050919050565b600081519050919050565b600081519050919050565b6000602082019050919050565b6000602082019050919050565b600082825260208201905092915050565b600082825260208201905092915050565b600082825260208201905092915050565b600082825260208201905092915050565b600082825260208201905092915050565b600081905092915050565b6000613f82826140f6565b9150613f8d836140f6565b9250827fffffffffffffffffffffffffffffffffffffffffffffffffffffffffffffffff03821115613fc257613fc161421f565b5b828201905092915050565b6000613fd8826140f6565b9150613fe3836140f6565b925082613ff357613ff261424e565b5b828204905092915050565b6000614009826140f6565b9150614014836140f6565b9250817fffffffffffffffffffffffffffffffffffffffffffffffffffffffffffffffff048311821515161561404d5761404c61421f565b5b828202905092915050565b6000614063826140f6565b915061406e836140f6565b9250828210156140815761408061421f565b5b828203905092915050565b6000614097826140d6565b9050919050565b60008115159050919050565b60007fffffffff0000000000000000000000000000000000000000000000000000000082169050919050565b600073ffffffffffffffffffffffffffffffffffffffff82169050919050565b6000819050919050565b82818337600083830152505050565b60005b8381101561412d578082015181840152602081019050614112565b8381111561413c576000848401525b50505050565b6000600282049050600182168061415a57607f821691505b6020821081141561416e5761416d61427d565b5b50919050565b61417d826142db565b810181811067ffffffffffffffff8211171561419c5761419b6142ac565b5b80604052505050565b60006141b0826140f6565b91507fffffffffffffffffffffffffffffffffffffffffffffffffffffffffffffffff8214156141e3576141e261421f565b5b600182019050919050565b60006141f9826140f6565b9150614204836140f6565b9250826142145761421361424e565b5b828206905092915050565b7f4e487b7100000000000000000000000000000000000000000000000000000000600052601160045260246000fd5b7f4e487b7100000000000000000000000000000000000000000000000000000000600052601260045260246000fd5b7f4e487b7100000000000000000000000000000000000000000000000000000000600052602260045260246000fd5b7f4e487b7100000000000000000000000000000000000000000000000000000000600052604160045260246000fd5b6000601f19601f8301169050919050565b7f202d2d204e465420233a20000000000000000000000000000000000000000000600082015250565b7f4552433732313a207472616e7366657220746f206e6f6e20455243373231526560008201527f63656976657220696d706c656d656e7465720000000000000000000000000000602082015250565b7f4552433732313a207472616e736665722066726f6d20696e636f72726563742060008201527f6f776e6572000000000000000000000000000000000000000000000000000000602082015250565b7f4552433732313a20746f6b656e20616c7265616479206d696e74656400000000600082015250565b7f2c20226d61785f76616c7565223a000000000000000000000000000000000000600082015250565b7f4552433732313a207472616e7366657220746f20746865207a65726f2061646460008201527f7265737300000000000000000000000000000000000000000000000000000000602082015250565b7f4552433732313a20617070726f766520746f2063616c6c657200000000000000600082015250565b7f4552433732313a206f70657261746f7220717565727920666f72206e6f6e657860008201527f697374656e7420746f6b656e0000000000000000000000000000000000000000602082015250565b7f446566656e64657220646f6573206e6f74206861766520656e6f75676820486560008201527f616c746820506f696e7473000000000000000000000000000000000000000000602082015250565b7f4552433732313a20617070726f76652063616c6c6572206973206e6f74206f7760008201527f6e6572206e6f7220617070726f76656420666f7220616c6c0000000000000000602082015250565b7f4552433732313a2062616c616e636520717565727920666f7220746865207a6560008201527f726f206164647265737300000000000000000000000000000000000000000000602082015250565b7f4552433732313a206f776e657220717565727920666f72206e6f6e657869737460008201527f656e7420746f6b656e0000000000000000000000000000000000000000000000602082015250565b7f222c20226465736372697074696f6e223a20225468697320697320616e204e4660008201527f542074686174206c6574732070656f706c6520706c617920696e20746865206760208201527f616d65204d657461766572736520536c6179657221222c2022696d616765223a60408201527f2022000000000000000000000000000000000000000000000000000000000000606082015250565b7f7d205d7d00000000000000000000000000000000000000000000000000000000600082015250565b7f4552433732313a206d696e7420746f20746865207a65726f2061646472657373600082015250565b7f4552433732313a20617070726f76656420717565727920666f72206e6f6e657860008201527f697374656e7420746f6b656e0000000000000000000000000000000000000000602082015250565b7f7b226e616d65223a202200000000000000000000000000000000000000000000600082015250565b7f596f7520617265206e6f7420746865206f776e6572206f66204e465400000000600082015250565b7f4552433732313a20617070726f76616c20746f2063757272656e74206f776e6560008201527f7200000000000000000000000000000000000000000000000000000000000000602082015250565b7f646174613a6170706c69636174696f6e2f6a736f6e3b6261736536342c000000600082015250565b7f41747461636b657220646f6573206e6f74206861766520656e6f75676820486560008201527f616c746820506f696e7473000000000000000000000000000000000000000000602082015250565b7f4552433732313a207472616e736665722063616c6c6572206973206e6f74206f60008201527f776e6572206e6f7220617070726f766564000000000000000000000000000000602082015250565b7f222c202261747472696275746573223a205b207b202274726169745f7479706560008201527f223a20224865616c746820506f696e7473222c202276616c7565223a20000000602082015250565b7f7d2c207b202274726169745f74797065223a202241747461636b2044616d616760008201527f65222c202276616c7565223a2000000000000000000000000000000000000000602082015250565b6149538161408c565b811461495e57600080fd5b50565b61496a8161409e565b811461497557600080fd5b50565b614981816140aa565b811461498c57600080fd5b50565b614998816140f6565b81146149a357600080fd5b5056fe4142434445464748494a4b4c4d4e4f505152535455565758595a6162636465666768696a6b6c6d6e6f707172737475767778797a303132333435363738392b2fa2646970667358221220be31ab50fa572d26d016c1221d0449edd2d03dc65ada52f41462da8675a0256c64736f6c63430008040033",
    "linkReferences": {},
    "deployedLinkReferences": {}
}